:020000040800F2
:10000000B80800209D010008891F0008DD1D0008B8
:10001000851F0008E9020008D9330008000000002D
:100020000000000000000000000000000D3100088A
:10003000ED02000800000000E92F0008113100085F
:10004000B7010008B7010008B7010008B7010008B0
:10005000B7010008B7010008B7010008B7010008A0
:10006000B7010008B7010008B7010008B701000890
:10007000B7010008B7010008B7010008B701000880
:10008000B7010008B7010008B7010008B701000870
:10009000B7010008B7010008B7010008B701000860
:1000A000B7010008B7010008B7010008B701000850
:1000B000B7010008B7010008B7010008B701000840
:1000C000B7010008B7010008B7010008B701000830
:1000D000B7010008CD330008B7010008B7010008D8
:1000E000B7010008B7010008B7010008B701000810
:1000F000B7010008B7010008B7010008B701000800
:10010000B7010008B7010008B7010008B7010008EF
:10011000B7010008B7010008B7010008B7010008DF
:10012000B7010008B7010008B7010008B7010008CF
:10013000B7010008B7010008B7010008B7010008BF
:10014000B7010008B7010008B7010008B7010008AF
:10015000B7010008B7010008B7010008B70100089F
:10016000B7010008B7010008B7010008B70100088F
:10017000B7010008B7010008B7010008000000003F
:10018000B7010008B7010008DFF80CD000F068F8EC
:100190000048004715360008B80800200648804788
:1001A00006480047FEE7FEE7FEE7FEE7FEE7FEE75C
:1001B000FEE7FEE7FEE7FEE7BD3100088901000823
:1001C0002DE9F05F0546002092469B46884606468C
:1001D000814640241BE0284641464746224600F01F
:1001E0002FF853465A46C01A914110D3114618466B
:1001F000224600F016F82D1A67EB01084F462246FA
:100200000120002100F00DF817EB00094E41201EDF
:10021000A4F10104DFDC484631462A464346BDE8E6
:10022000F09F202A04DB203A00FA02F100207047F8
:100230009140C2F1200320FA03F319439040704724
:10024000202A04DB203A21FA02F00021704721FA2B
:1002500002F3D040C2F12002914008431946704792
:100260001CB509480090094801900546009C06E02D
:10027000E06840F0010394E8070098471034AC426E
:10028000F6D3FFF785FF0000B43A0008D43A00081F
:1002900070B58C1810F8015B15F0070301D110F848
:1002A000013B2A1106D110F8012B03E010F8016B75
:1002B00001F8016B5B1EF9D12B0705D40023521EF8
:1002C0000DD401F8013BFAE710F8013BCB1A921C60
:1002D00003E013F8015B01F8015B521EF9D5A1425E
:1002E000D8D3002070BD0000FEE70000704700007A
:1002F00072B600BFFEE7000070B5866D044600F0E0
:100300003FF994F83510022928D105462068216C60
:10031000026822F016020260426922F08002426105
:1003200009B9A16C19B1016821F0080101600168E7
:1003300021F00101016000BF20680068C00715D0EE
:1003400000F01EF9401B0628F6D32020606503202C
:1003500084F83500002184F8341070BD8020606579
:100360000120002184F8341070BD00BFE06D3F21F2
:1003700001FA00F0B060012084F83500002000216F
:1003800084F8341070BD000090F83510022909D1AE
:10039000052180F835100068016821F00101016035
:1003A000002070478021416501207047B0B50446A8
:1003B00000F0E6F8054640F20400C2F200000078C2
:1003C000611C18BF044400BF00F0DAF8401BA042D3
:1003D000FAD3B0BD2DE9F04F82B000F13E4707F1EE
:1003E000FF77860546EA972741F60046C4F20206E3
:1003F000082243F6004EB04208BF0722C4F2010EA5
:10040000072F38BF3A46002600274FF00008009219
:1004100009E000BF08F101080237B8F1100F06F13A
:10042000040600F0A3800D68012202FA08F415EA20
:100430000409EFD0D1F804B003220BF0030CACF1A7
:100440000105BA40012D6FEA020A0FD88268CD6813
:1004500002EA0A02BD402A4382604268A243CBF30B
:10046000001404FA08F42243426005E0BCF1030FD3
:1004700002D14FF0030C1EE0C2688C6802EA0A0247
:10048000BC402243BCF1020FC26014D16FF00302E2
:1004900002EA58020244D2F820C006F01C040F23DE
:1004A0000D69A3402CEA0303A5402B431362D1F846
:1004B00004B00BF0030C02680CFA07F302EA0A021C
:1004C0001A431BF4403F0260A4D0002243F64403C9
:1004D0000192C4F202031A684FF6084C42F48042BB
:1004E0001A601A68CFF6FF7C02F480420192019AEA
:1004F00028F00302724452F80C3006F00C050F2469
:10050000AC40A343009C04FA05F52B4342F80C30A1
:10051000DEF808204B6842EA090543F60C4CDC0281
:1005200058BF22EA0905CEF80850C4F2010CDCF8E5
:1005300000209C0242EA090558BF22EA0905CCF8CE
:100540000050DEF804209C0342EA090558BF22EA65
:100550000905CEF80450DEF80020DB0342EA090565
:1005600058BF22EA0905CEF8005053E702B0BDE8B3
:10057000F08F0000002A08BF090481617047000065
:1005800040F2B440C2F200000068704740F204003C
:1005900040F2B441C2F20000C2F2000100780A68E1
:1005A000104408607047000080B543F60040C4F274
:1005B0000200016841F400710160016841F480614A
:1005C0000160016841F480710160032000F086F849
:1005D0000F2000F005F800F027F8002080BD000093
:1005E00070B540F20406C2F2000640F20C01327807
:1005F000C2F200014FF47A730968B3FBF2F20446C9
:10060000B1FBF2F1084600F0E9FF0F2C4FF00105B5
:1006100008D838B94FF0FF3021460022002500F0FD
:1006200031F87460284670BD82B0002043F6400166
:100630000190C4F202014A6842F480424A604A686A
:1006400002F480420192019A0090086840F08050C4
:100650000860086800F080500090009802B0704771
:10066000002848BF704700F01F01012202FA01F183
:100670001C2202EAD0004EF20012CEF2000281509B
:100680007047000010B54EF60C5CCEF2000CDCF8A2
:100690000030C3F3022E8EF00704042C28BF04247C
:1006A000BEF103034FF0FF3E0EFA04F438BF0023FF
:1006B000A14399400EFA03F39A43114300F00F024D
:1006C00000F160430901043A03F5644362440028E1
:1006D00048BF02F10C03197010BD00004EF60C511A
:1006E000CEF200010A684FF6FF031A4060F30A22B7
:1006F00042F0806040F0FD7008607047002804BF41
:10070000012070472DE9F04143F60808C4F20208C1
:100710000446D8F8F8030D4600F00700884207D2D7
:1007200088F8F853D8F8F80300F00700A84277D10A
:100730002068810717D5410705D5D8F8001041F486
:10074000E051C8F80010010705D5D8F8001041F4B1
:100750006041C8F80010D8F80010A26821F0F0013C
:100760001143C8F80010C00740D1D8F8F80300F0D2
:100770000700A84207D988F8F853D8F8F80300F022
:100780000700A8424CD12068410707D5D8F80010CF
:10079000E26821F4E0511143C8F80010000708D5C1
:1007A000D8F80000216920F4604040EAC100C8F890
:1007B000000000F07DF8D8F8001043F69C22C1F349
:1007C0000311C0F60002515C40F20C0220FA01F164
:1007D00040F20800C2F200000068C2F2000211609C
:1007E000FFF7FEFE0020BDE8F08100BF6068811EBB
:1007F000022907D258F8081C89015CBF0120BDE816
:10080000F08111E0012807D158F8081C89035CBF6A
:100810000120BDE8F08107E058F8081C890703D4DF
:100820000120BDE8F08100BFD8F8001021F00301DD
:100830000843C8F80000FFF7A3FE064641F28837D8
:10084000D8F80000616800F00C00B0EB810F8CD08C
:10085000FFF796FE801BB842F2D90320BDE8F08175
:1008600040F20C0043F60801C2F20000C4F202019B
:100870000068096843F6AC22C1F38221C0F6000289
:10088000515CC8407047000040F20C0043F608017C
:10089000C2F20000C4F202010068096843F6AC220B
:1008A000C1F34231C0F60002515CC84070470000FD
:1008B00010B543F60404C4F20204606800F00C01B1
:1008C00042F200400829C0F2F40007D0042918BF02
:1008D00010BD41F20020C0F27A0010BD216801F085
:1008E0003F02216823684902C3F3881106D4A1FBA3
:1008F00000010023FFF764FC07E000BF41F2002085
:10090000C0F27A004843B0FBF2F021680222C1F342
:10091000014102EB4101B0FBF1F010BD002804BF22
:10092000012070472DE9F04182B00446007843F67B
:100930000006C007C4F202060CD0B06800F00C003C
:10094000042840F081803068800303D56068002867
:1009500000F06A81207880071BD5B06810F00C0F7A
:1009600009D0B06800F00C00082840F0878070685B
:10097000400200F183803068800703D5E0680128D9
:1009800040F052813068216920F0F80040EAC1004F
:1009900030602078000713D4207840072AD4A56956
:1009A000002D00F03C81B06800F00C00082840F0F9
:1009B000A180012D40F01081012002B0BDE8F0813E
:1009C0006069002840F20000C4F2472000F07E80F9
:1009D0000121C0F8801EFFF7D3FD0546706F800728
:1009E000DAD4FFF7CDFD401B0228F7D9032002B06F
:1009F000BDE8F081306C5FEAC0080AD400200190A5
:100A0000306C40F080503064306C00F080500190C9
:100A1000019847F20007C4F200073868C00547D4C0
:100A2000386840F480703860FFF7AAFD054600BFC3
:100A30003868C0053CD4FFF7A3FD401B0228F7D956
:100A4000032002B0BDE8F081B06800F00C00082877
:100A500003D1706840023FF576AF6068B0F5803F23
:100A600007D0B0F5A02F40F09B80306840F4802084
:100A70003060306840F4803030609BE0E0680028EF
:100A80005CD00020C4F2472001210160FFF778FD0F
:100A9000054600BF306880073FF574AFFFF770FD73
:100AA000401B0228F6D9032002B0BDE8F08100BF48
:100AB000A068012805D0052854D1306F40F004000B
:100AC0003067306F40F00100306755E00021C0F81A
:100AD000801EFFF755FD0546706F80077FF55CAF00
:100AE000FFF74EFD401B0228F6D9032002B0BDE8F7
:100AF000F08100BF0027C4F2472700203866FFF7C7
:100B00003FFD022D05460DD13068800140F19080F7
:100B1000FFF736FD401B02284FF00300F4D902B066
:100B2000BDE8F0813068800179D5FFF729FD401BD1
:100B300002284FF00300F5D9F1E700BF0020C4F20E
:100B4000472000210160FFF71BFD05463068800744
:100B50007FF51FAFFFF714FD401B02284FF0030085
:100B6000F4D9DCE7316F002821F001013167316FE2
:100B700021F0040131677DD0FFF702FD054641F207
:100B8000883700BF306F800700F18680FFF7F8FCE0
:100B9000401BB842F6D9032002B0BDE8F08100BF87
:100BA0003168002821F480313160316821F48021DE
:100BB00031607BD0FFF7E4FC054600BF306880035E
:100BC0003FF5C8AEFFF7DCFC401B6428F6D90320D4
:100BD00002B0BDE8F08100BF7068E16900F48002F6
:100BE0008A4221D1216A00F03F028A421CD147F695
:100BF000C071626A0140B1EB821F15D1A16A4FF644
:100C0000FF73C903994300F44032A1F580318A4251
:100C10000AD1E16A00F07060B0EB016F04D10020EE
:100C200002B0BDE8F08100BF012002B0BDE8F08154
:100C300004F11C052FCD084340EA8210D9034FF67A
:100C4000FF729143A1F5803140EA0560084370606E
:100C500001203866FFF794FC044600BF306880012D
:100C6000DDD4FFF78DFC001B02284FF00300F5D9FF
:100C700055E700BFFFF784FC054641F2883700BF07
:100C8000306F800708D5FFF77BFC401BB8424FF060
:100C90000300F5D943E700BFB8F1000F3FF57FAE81
:100CA000306C20F08050306479E600BFFFF768FCBC
:100CB000054600BF306880037FF54CAEFFF760FC4F
:100CC000401B64284FF00300F4D928E770B538B111
:100CD0000446406A30B10020206104F1140007E0AE
:100CE000012070BD6068B0F5827F03D004F11C0064
:100CF000002101600026A66294F8510020B9204628
:100D000084F8506000F03CF8022084F8510094E828
:100D10000F0001F48271056802F4044225F04005D9
:100D20000560114403F400622369114403F00202D8
:100D30006369114403F00102A369E569114403F4F6
:100D40000072114405F03802256A114405F0800252
:100D5000A56A114305F4005211430160626A04213F
:100D600001EA134102F0100211444160C16921F40B
:100D70000061C1610120666584F85100304670BD94
:100D8000016843F20000C4F20100814218BF7047BD
:100D900080B586B0002143F630020191C4F2020210
:100DA000536900F5504043F480535361536903F491
:100DB00080530193019B0191136843F00103136079
:100DC000126802F001020192019AE02201920222CD
:100DD000CDE90221032104910521059101A9FFF725
:100DE000F9FA06B0BDE88040704700002DE9F043F5
:100DF00081B0044690F85100012811D160689946ED
:100E000016460D46B0F5827F01D1A068D0B194F8A6
:100E10005000012806D10227384601B0BDE8F08312
:100E2000022708E0012784F85070FFF7A9FB002D86
:100E300018BF002E14D1002084F85000384601B0AD
:100E4000BDE8F083042084F85100204629462A4654
:100E50003346CDF8009000F00DFA01B0BDE8F08304
:100E600080460420002184F851006165A563A687AF
:100E7000E6872163A186E186A2682068B2F5004F6B
:100E80002164616440D1016821F040010160016882
:100E900021F4804101600168490638D5E168E08F9E
:100EA00000293CD000286BD019F101000BD11AE0C9
:100EB000C068A16B21F8020BA163E08F0138E087C5
:100EC000E08F00285CD020688168C907F0D1FFF767
:100ED00057FBA0EB08004845F2D33AE0FFF750FB80
:100EE000E08F00284CD020688168C907F6D0C06820
:100EF000A16B21F8020BA163E08F0138E087E08F3E
:100F00000028F0D13CE000BF01684906C6D4016862
:100F100041F040010160E168E08F0029C2D178B35F
:100F200019F101000BD11BE0007BA16B0870A06BD5
:100F30000130A063E08F0138E087E08F00B32068C4
:100F40008168C907F0D1FFF71BFBA0EB08004845FB
:100F5000F3D303273FE000BFFFF712FBE08F78B128
:100F600020688168C907F7D0007BA16B0870A06B6F
:100F70000130A063E08F0138E087E08F0028EFD1D7
:100F80006068B0F5827F0ED1A068B0F5004F02D046
:100F9000B0F5806F0AD12168B0F5806F0A6822F041
:100FA00040020A6002D12046012101E02046802152
:100FB00000224B46CDF8008002F018F828B1606D91
:100FC00040F02000606520206065606D10B1012751
:100FD00031E700BF0027012084F851002BE7000013
:100FE0002DE9F04184B0044690F85000012803D167
:100FF000022004B0BDE8F08101201D4616460F46D0
:1010000084F85000FFF7BCFA94F8511001290DD173
:101010008046002F4FF0010018BF002E0ED1002196
:1010200084F8501004B0BDE8F08100BF0220002118
:1010300084F8501004B0BDE8F08100BF0320002107
:1010400084F8510061652763A686E686A163A187BF
:10105000E187A0682164B0F5004F2068616407D182
:10106000016821F040010160016841F480410160A4
:101070000168490603D4016841F0400101606168DC
:10108000731EE268B1FA81F1B3FA83F349095B098F
:10109000B2F5006F41EA03013AD131B137F8021BD2
:1010A000C1602763E08E0138E086E08E002869D0B9
:1010B000681C0CD11BE000BF216B31F8022BC26011
:1010C0002163E08E0138E086E08E00285AD0206847
:1010D00081688907F0D4FFF753FAA0EB0800A84213
:1010E000F2D338E0FFF74CFAE08E00284AD02068AF
:1010F00081688907F6D5216B31F8022BC260216324
:10110000E08E0138E086E08E0028F0D13AE000BFA2
:1011100039B139780173206B01302063E08E0138DA
:10112000E086E08E70B3681C0BD11BE0216B097860
:101130000173206B01302063E08E0138E086E08E81
:1011400000B3206881688907F0D4FFF719FAA0EB93
:101150000800A842F3D3032083E000BFFFF710FA92
:10116000E08E78B1206881688907F7D5216B09780E
:101170000173206B01302063E08E0138E086E08E41
:101180000028EFD12046022101222B46CDF8008015
:1011900001F02CFFD0B1606D40F020006065202090
:1011A0006065A06838B9002002902068C16802918B
:1011B000806802900298606D002851D001200021C3
:1011C00084F8501004B0BDE8F08100BF40F20C007C
:1011D000C2F20000006849F68171C1F25E61A0FBB5
:1011E0000101480D4FF47A71484303906068B0F5EF
:1011F000827F0BD12046802100222B46CDF8008033
:1012000001F0F4FE0028C6D1CBE700BF0398002808
:10121000C7D0039801380390206880680006C0D5C5
:1012200003980028BDD00398013803902068806897
:101230000006B6D503980028B3D003980138039070
:10124000206880680006ACD503980028A9D00398D0
:1012500001380390206880680006D7D4A1E700BF5A
:101260000020012184F85110002184F8501004B0AE
:10127000BDE8F0812DE9F04383B0044690F85000BA
:10128000012803D1022003B0BDE8F08301201E46EF
:1012900015460F4684F85000FFF772F994F8511084
:1012A000814601290CD1002F4FF0010018BF002DFD
:1012B00014D1002184F8501003B0BDE8F08300BFC2
:1012C0006068B0F5827F40F0998004294FF00200F9
:1012D000EFD1A1680029E6D0EBE700BF002EE8D0EF
:1012E00094F85100002104281CBF052084F8510007
:1012F0006165A563E687A6872763E6862068A686DC
:10130000216461640168490603D4016841F0400129
:1013100001606168731EE268B1FA81F1B3FA83F388
:10132000DDF8288049095B09B2F5006F41EA030145
:101330006CD131B137F8021BC1602763E08E0138F0
:10134000E086012518F1010031D101E0FFF718F91D
:10135000E08E18B9E08F002800F0C0802068816816
:1013600089070CD5E18E51B1012D08D1216B0025E3
:1013700031F8022BC2602163E18E0139E186816878
:10138000C907E3D0E18F0029E0D0C068A16B012537
:1013900021F8020BA163E08F0138E087D6E700BF98
:1013A000FFF7EEF8A0EB0900404580F0AD80E08E3D
:1013B00018B9E08F002800F09180206881688907C3
:1013C0000CD5E18E51B1012D08D1216B002531F8EA
:1013D000022BC2602163E18E0139E1868168C90771
:1013E000DED0E18F0029DBD0C068A16B012521F898
:1013F000020BA163E08F0138E087D1E702200021D2
:1014000084F8501003B0BDE8F08300BF39B13978DB
:101410000173206B01302063E08E0138E0860125E6
:1014200018F1010032D101E0FFF7AAF8E08E10B9FF
:10143000E08F002852D02068816889070ED5E18EA0
:1014400061B1012D0AD1216B002509780173216B4F
:10145000206801312163E18E0139E1868168C90785
:10146000E2D0E18F0029DFD0C068A16B01250870B0
:10147000A06B0130A063E08F0138E087D4E700BFA4
:10148000FFF77EF8A0EB090040453DD2E08E08B999
:10149000E08F18B32068816889070ED5E18E61B1AD
:1014A000012D0AD1216B002509780173216B206879
:1014B00001312163E18E0139E1868168C907DFD0FE
:1014C000E18F0029DCD0C068A16B01250870A06BFA
:1014D0000130A063E08F0138E087D1E72046022188
:1014E00001224346CDF8009001F080FDB0B1606D5F
:1014F00040F020006065202060650120002184F814
:10150000501003B0BDE8F083012084F8510003209F
:10151000002184F8501003B0BDE8F08340F20C00C5
:10152000C2F20000006849F68171C1F25E61A0FB61
:101530000101480D4FF47A71484302906068B0F59C
:10154000827F21D12046802100224346CDF80090A1
:1015500001F04CFD0028CAD1A06838B900200190E4
:101560002068C1680191806801900198606D002831
:101570004FF0010004BF84F851000020002184F8DE
:10158000501003B0BDE8F08302980028E4D0029820
:1015900001380290206880680006DDD50298002896
:1015A000DAD0029801380290206880680006D3D50E
:1015B00002980028D0D002980138029020688068F4
:1015C0000006C9D502980028C6D0029801380290BA
:1015D000206880680006D7D4BEE70000411E0020C6
:1015E000B0EB116F1CBF012070474EF21002CEF21B
:1015F000000251604EF62351CEF20001F0230B7031
:10160000072190601160704770470000704700002C
:10161000B0B582B0044600680168C368426901F051
:101620002F05202D03F0200506D12DB1204602B054
:10163000BDE8B04001F0D2BD5FEA017C1EBF02F000
:10164000010E03F4907212EB0E0243D1226BCD0611
:1016500018D5012A16D113F0100213D000210191E0
:1016600001680191416801910199406940063BD4AC
:10167000A08DE18DE28D002A18BF884240F0F281F2
:1016800002B0B0BD0A0640F1E78013F0800200F01E
:10169000E38094F841102129F2D1A168B1F5805F6F
:1016A00003D12169002900F06382216A4A1C226269
:1016B00009784160E18C01390A04E184E0D1C16814
:1016C00021F08001C160C16841F04001C16002B0F9
:1016D000B0BD00BFCA0718BF13F4807240F0D080BD
:1016E0004A0700F1D380D8E0E06B016849688AB20C
:1016F000002AC5D0A38D9A42C2D2E185C069B0F557
:10170000807F00F09D80206850E8030F216820F45E
:10171000807041E80302DAB1206850E8030F2168C5
:1017200020F4807041E8030292B1206850E8030F72
:10173000216820F4807041E803024AB1206850E833
:10174000030F216820F4807041E80302002ADAD1F7
:10175000206850E8050F216820F0010041E80502EB
:10176000BAB3206850E8050F216820F0010041E875
:10177000050272B3206850E8050F216820F00100CF
:1017800041E805022AB3206850E8050F216820F0DF
:10179000010041E80502002ADAD11AE0206850E889
:1017A000050F216820F0400041E80502DAB1206809
:1017B00050E8050F216820F0400041E8050292B191
:1017C000206850E8050F216820F0400041E805023C
:1017D0004AB1206850E8050F216820F0400041E838
:1017E0000502002ADAD1202084F84200002020637C
:1017F000206850E8030F216820F0100041E8030240
:10180000DAB1206850E8030F216820F0100041E8A9
:10181000030292B1206850E8030F216820F0100005
:1018200041E803024AB1206850E8030F216820F024
:10183000100041E80302002ADAD1E06BFEF75CFDFC
:1018400002206063A08DE18D401A81B2204602B073
:10185000BDE8B040FFF7D8BE49067FF511AF13F0E1
:1018600040013FF40DAFC16821F04001C16020216B
:10187000204684F8411002B0BDE8B04000F0ACBA98
:10188000626C42F0010262644A0706D5BEF1000FA5
:1018900003D0626C42F0020262648A0706D5BEF190
:1018A000000F03D0626C42F004026264BCF1000FCE
:1018B00006D55EEA050203D0626C42F0080262645B
:1018C000626C002A3FF4DCAE890604D51DB12046C7
:1018D00001F084FC20684069616C00F0400001F078
:1018E0000801401800F0B680206850E8030F216816
:1018F00020F4907041E80302BAB3206850E8030F67
:10190000216820F4907041E8030272B3206850E827
:10191000030F216820F4907041E803022AB3206885
:1019200050E8030F216820F4907041E80302002A78
:10193000DAD11AE0206850E8050F216820F0010094
:1019400041E80502DAB1206850E8050F216820F06F
:10195000010041E8050292B1206850E8050F2168B6
:1019600020F0010041E805024AB1206850E8050F67
:10197000216820F0010041E80502002ADAD1206B3D
:10198000012824D1206850E8030F216820F01000BE
:1019900041E80302DAB1206850E8030F216820F023
:1019A000100041E8030292B1206850E8030F21685B
:1019B00020F0100041E803024AB1206850E8030F0C
:1019C000216820F0100041E80302002ADAD120202B
:1019D00084F842000020206320684069400640F1FE
:1019E000C180206850E8050F216820F0400041E8E0
:1019F0000502DAB1206850E8050F216820F04000A8
:101A000041E8050292B1206850E8050F216820F0F6
:101A1000400041E805024AB1206850E8050F2168FE
:101A200020F0400041E80502002ADAD1E06B0028EE
:101A300000F0988043F2D111C0F600010165FEF775
:101A4000A3FC00283FF41CAEE06B016D02B0BDE8C2
:101A5000B04008472046FFF7D9FD0020606402B07F
:101A6000B0BD00BF401A00BF216851E8031F2268C3
:101A700021F4907142E80313BBB3216851E8031FBE
:101A8000226821F4907142E8031373B3216851E88E
:101A9000031F226821F4907142E803132BB32168DD
:101AA00051E8031F226821F4907142E80313002BD0
:101AB000DAD11AE0216851E8051F226821F00101FE
:101AC00042E80513DBB1216851E8051F226821F0C7
:101AD000010142E8051393B1216851E8051F22680E
:101AE00021F0010142E805134BB1216851E8051FBF
:101AF000226821F0010142E80513002BDAD12021F0
:101B000084F8421000212163216851E8031F2268F4
:101B100021F0100142E80313DBB1216851E8031FF3
:101B2000226821F0100142E8031393B1216851E8C3
:101B3000031F226821F0100142E803134BB1216812
:101B400051E8031F226821F0100142E80313002B23
:101B5000DAD1022281B22046626302B0BDE8B04011
:101B6000FFF752BD204602B0BDE8B040FFF74EBDC2
:101B7000216A31F8022B6FF35F224260216299E5FE
:101B8000002804BF0120704710B5044690F84100BA
:101B900028B9002084F84000204600F021F82420D5
:101BA00084F841002068C16821F40051C1602046DA
:101BB00001F094FB2068016921F4904101614169C1
:101BC00021F02A014161C16841F40051C160002047
:101BD0002021606484F8411084F84210606310BDD5
:101BE000016841F20000C4F20100814218BF704751
:101BF00080B586B0002143F630020191C4F20202A2
:101C0000536900F5704043F010035361536903F0CA
:101C100010030193019B0191136843F001031360CA
:101C2000126802F001020192019A4FF4C06201921F
:101C30000222CDE90221032104910721059101A986
:101C4000FEF7C8FB252000210022FEF71BFD252002
:101C5000FEF706FD06B0BDE8804070477047000003
:101C60002DE9F041044690F8410020281CBF0220D5
:101C7000BDE8F0810D4600294FF0010000F0AA8078
:101C80001646002A08BFBDE8F081002060642120CC
:101C9000984684F84100FEF773FCA684E684A168A8
:101CA0000646B1F5805F02D12069002862D02F4638
:101CB0000025E08C002861D018F1010018D0B8F19F
:101CC000000F37D1216808E017F8010B4860E08C5D
:101CD0000138E084E08C002851D00868000673D5F4
:101CE000002FF1D135F8020B00276FF35F20EDE7ED
:101CF000216802E00868000609D40868000606D4D6
:101D0000086800065CBF08685FEA0060F2D51FB192
:101D100017F8010B05E000BF35F8020B00276FF341
:101D20005F204860E08C0138E084E08C0028E4D13A
:101D300025E000BF216800BF0868000608D4FEF750
:101D40001FFC801B404541D82168C868F4E700BFEC
:101D500017B117F8010B04E035F8020B00276FF3F9
:101D60005F204860E08C0138E084E08C0028E3D1FB
:101D700005E000BF0027E08C00289DD1216808689D
:101D800040061FD4B8F1000F1ED018F101000FD18A
:101D90000868400616D40868400613D40868400650
:101DA00010D4086840064FF00000F1D50FE000BFE6
:101DB000FEF7E6FB801B404508D82068C168006834
:101DC0004006F5D5002002E0FEF7DAFB03202021D3
:101DD00084F84110BDE8F08170470000FEE7000084
:101DE0002DE9F04387B0002743F6300006970197AE
:101DF000C4F202000168002441F080010160016822
:101E0000C4F2020401F08001019101990197016877
:101E1000012241F00101016001681C2601F001016D
:101E200001910199019701684FF0010841F0040107
:101E3000016000681C2100F0040001900198204618
:101E4000FEF798FB04F500652846202101224FF09B
:101E50002009FEF78FFBCDE9026802AE204631462D
:101E6000CDE90477FEF7B6FA28463146CDE9029867
:101E7000CDE90477FEF7AEFA07B0BDE8F0830000C5
:101E800010B540F2144043F20001C2F20000C4F267
:101E900001014FF48272002380E80E0000F10C0172
:101EA0004FF0020C4FF0010E4FF4007481E808501F
:101EB0000A21C0E90643C0E90833C0E90A31FEF748
:101EC00005FF002808BF10BDBDE81040FEF710BA9E
:101ED00080B582B040F21440C2F200000DF107015B
:101EE00001224FF0FF33FEF781FF9DF8070002B09B
:101EF00080BD000080B582B08DF8070040F214402C
:101F0000C2F200000DF1070101224FF0FF33FFF78D
:101F100067F802B080BD000080B582B08DF8070080
:101F200040F214404FF0FF3CC2F200000DF10701F7
:101F30000DF106020123CDF800C0FFF79BF99DF8D3
:101F4000060002B080BD000080B540F26C4041F256
:101F50000001C2F20000C4F2010100234FF00C0C9A
:101F60004FF4E13280E80E00C0E90333C0E905C355
:101F7000C361FFF705FE002808BF80BDBDE88040B3
:101F8000FEF7B6B9FEE70000FEE70000F0B581B04D
:101F900000240025C4F20204204604210022A5F1F9
:101FA00050070026FEF7E6FA204608210022FEF739
:101FB000E1FAF8B2FFF79EFF204608210122FEF762
:101FC000D9FA204604210122FEF7D4FA2046042142
:101FD0000022FEF7CFFA204608210022FEF7CAFAB7
:101FE0001020FFF787FF204608210122FEF7C2FAE2
:101FF000204604210122FEF7BDFA204604210022DA
:10200000FEF7B8FA204608210022FEF7B3FA0020B6
:10201000FFF770FF204608210122FEF7ABFA2046A9
:1020200004210122FEF7A6FA204604210122FEF730
:10203000A1FA204608210022FEF79CFA0020FFF7B3
:1020400059FF204608210122FEF794FA2046042178
:102050000122FEF78FFA701C46B2B6F1FF3FE3DCB7
:10206000E8B20135072897D301B0F0BDB0B528B16B
:10207000012818BFB0BDA72401E000BFA624002599
:10208000C4F20205284604210022FEF773FA28460E
:1020900008210022FEF76EFA2046FFF72BFF2846A4
:1020A00008210122FEF766FA284604210122BDE834
:1020B000B040FEF75FBA000070B528B1012818BF24
:1020C00070BDA024C02601E0A124C8260025C4F2CA
:1020D0000205284604210022FEF74CFA2846082172
:1020E0000022FEF747FA3046FFF704FF2846082192
:1020F0000122FEF73FFA284604210122FEF73AFAB0
:10210000284604210022FEF735FA2846082100223D
:10211000FEF730FA2046FFF7EDFE2846082101229F
:10212000FEF728FA284604210122BDE87040FEF798
:1021300021BA0000F0B581B005460024002000213E
:10214000C4F20204002700F0FDFE6E1E16F8015FC7
:10215000204604210122FEF70DFA20460821002224
:10216000FEF708FA2846FFF7C5FE2046082101229F
:10217000FEF700FA204604210122FEF7FBF9781C45
:1021800047B2B7F1FF3FE1DC00200121002700F05A
:10219000D9FE00BF16F8015F204604210122FEF798
:1021A000E9F9204608210022FEF7E4F92846FFF766
:1021B000A1FE204608210122FEF7DCF92046042179
:1021C0000122FEF7D7F9781C47B2B7F1FF3FE1DCF7
:1021D00000200221002700F0B5FE00BF16F8015FC5
:1021E000204604210122FEF7C5F9204608210022DD
:1021F000FEF7C0F92846FFF77DFE204608210122A0
:10220000FEF7B8F9204604210122FEF7B3F9781C45
:1022100047B2B7F1FF3FE1DC00200321002700F0C7
:1022200091FE00BF16F8015F204604210122FEF74F
:10223000A1F9204608210022FEF79CF92846FFF765
:1022400059FE204608210122FEF794F92046042178
:102250000122FEF78FF9781C47B2B7F1FF3FE1DCAE
:1022600000200421002700F06DFE00BF16F8015F7A
:10227000204604210122FEF77DF920460821002294
:10228000FEF778F92846FFF735FE2046082101229F
:10229000FEF770F9204604210122FEF76BF9781C45
:1022A00047B2B7F1FF3FE1DC00200521002700F035
:1022B00049FE00BF16F8015F204604210122FEF707
:1022C00059F9204608210022FEF754F92846FFF765
:1022D00011FE204608210122FEF74CF92046042178
:1022E0000122FEF747F9781C47B2B7F1FF3FE1DC66
:1022F00000200621002700F025FE00BF16F8015F30
:10230000204604210122FEF735F92046082100224B
:10231000FEF730F92846FFF7EDFD2046082101229F
:10232000FEF728F9204604210122FEF723F9781C44
:1023300047B2B7F1FF3FE1DC00200721002700F0A2
:1023400001FE00BF16F8015F204604210122FEF7BE
:1023500011F9204608210022FEF70CF92846FFF764
:10236000C9FD204608210122FEF704F92046042178
:102370000122FEF7FFF8781C47B2B7F1FF3FE1DC1E
:1023800001B0F0BD2DE9F04381B000241746894625
:102390008046C4F2020400F0D5FD7E1E002500BF79
:1023A00016F8017F204604210122FEF7E3F82046BB
:1023B00008210022FEF7DEF83846FFF79BFD204695
:1023C00008210122FEF7D6F8204604210122FEF75B
:1023D000D1F80F2D05F10105E2D309F10100C1B2D9
:1023E000404600F0AFFD002716F8015F20460421AB
:1023F0000122FEF7BFF8204608210022FEF7BAF8B6
:102400002846FFF777FD204608210122FEF7B2F8A3
:10241000204604210122FEF7ADF80F2F07F1010736
:10242000E2D301B0BDE8F0832DE9F04381B000268E
:102430000C468046C4F20206A2F108054FF00109DD
:10244000E1B2404600F07EFD15F8087F30460421D9
:102450000122FEF78FF8304608210022FEF78AF8A5
:102460003846FFF747FD304608210122FEF782F883
:10247000304604210122FEF77DF86F7830460421B2
:102480000122FEF777F8304608210022FEF772F8A5
:102490003846FFF72FFD304608210122FEF76AF883
:1024A000304604210122FEF765F8AF78304604215A
:1024B0000122FEF75FF8304608210022FEF75AF8A5
:1024C0003846FFF717FD304608210122FEF752F883
:1024D000304604210122FEF74DF8EF783046042102
:1024E0000122FEF747F8304608210022FEF742F8A5
:1024F0003846FFF7FFFC304608210122FEF73AF884
:10250000304604210122FEF735F82F7930460421A8
:102510000122FEF72FF8304608210022FEF72AF8A4
:102520003846FFF7E7FC304608210122FEF722F883
:10253000304604210122FEF71DF86F793046042150
:102540000122FEF717F8304608210022FEF712F8A4
:102550003846FFF7CFFC304608210122FEF70AF883
:10256000304604210122FEF705F8AF7930460421F8
:102570000122FDF7FFFF304608210022FDF7FAFF98
:102580003846FFF7B7FC304608210122FDF7F2FF7D
:10259000304604210122FDF7EDFFEF79304604219A
:1025A0000122FDF7E7FF304608210022FDF7E2FF98
:1025B0003846FFF79FFC304608210122FDF7DAFF7D
:1025C000304604210122FDF7D5FF01345FEAC970CE
:1025D0004FF000097FF434AF01B0BDE8F083000094
:1025E0002DE9F04F8DB0914612780091002A00F04D
:1025F000158240F6000706460020C4F2020743F6A3
:10260000F3544FF0000A08E00AF1010A5FFA8AF079
:1026100019F80020002A00F0018202F15001C9B22D
:102620004729D1B200F2BE80013019F80020A12A5A
:10263000EAD34BF66072CFF6FF725E2340F210458C
:1026400011FB0322C2F200052A6019F800000022E3
:1026500011FB0300A0EB04084FEA481B3846202179
:10266000C5F800B0FDF786FF0320FFF743FCC8F371
:10267000C720FFF73FFCC8F3C700FFF73BFC5FFA3A
:102680008BF0FFF737FCFFF723FC8DF81400FFF702
:102690001FFC8DF81500FFF71BFC8DF81600FFF7E7
:1026A00017FC8DF81700FFF713FC8DF81800FFF7E3
:1026B0000FFC8DF81900FFF70BFC8DF81A00FFF7DF
:1026C00007FC8DF81B00FFF703FC8DF81C00FFF7DB
:1026D000FFFB8DF81D00FFF7FBFB8DF81E00FFF7D9
:1026E000F7FB8DF81F00FFF7F3FB8DF82000FFF7D5
:1026F000EFFB8DF82100FFF7EBFB8DF82200FFF7D1
:10270000E7FB8DF82300FFF7E3FB8DF82400FFF7CC
:10271000DFFB8DF82500FFF7DBFB8DF82600FFF7C8
:10272000D7FB8DF82700FFF7D3FB8DF82800FFF7C4
:10273000CFFB8DF82900FFF7CBFB8DF82A00FFF7C0
:10274000C7FB8DF82B00FFF7C3FB8DF82C00FFF7BC
:10275000BFFB8DF82D00FFF7BBFB8DF82E00FFF7B8
:10276000B7FB8DF82F00FFF7B3FB8DF83000FFF7B4
:10277000AFFB8DF83100FFF7ABFB8DF83200FFF7B0
:10278000A7FB8DF83300384620210122FDF7F2FE29
:102790000099F0B205AAFFF7F5FD10360AF1020A1A
:1027A00034E700BF02F15F03DBB2022B00F2C68008
:1027B000013019F80020A12AFFF426AF4CF2E242C2
:1027C0005E23CFF6FF7240F2104411FB0322C2F2E7
:1027D0000004226019F80000B04611FB030043F624
:1027E000BF313E46471A7D01304620210022256038
:1027F000FDF7C0FE0320FFF77DFBC7F3C720FFF7FF
:1028000079FBC7F3C700009C37464646FFF772FBCB
:10281000E8B2FFF76FFBFFF75BFB8DF81400FFF7E3
:1028200057FB8DF81500FFF753FB8DF81600FFF7E7
:102830004FFB8DF81700FFF74BFB8DF81800FFF7E3
:1028400047FB8DF81900FFF743FB8DF81A00FFF7DF
:102850003FFB8DF81B00FFF73BFB8DF81C00FFF7DB
:1028600037FB8DF81D00FFF733FB8DF81E00FFF7D7
:102870002FFB8DF81F00FFF72BFB8DF82000FFF7D3
:1028800027FB8DF82100FFF723FB8DF82200FFF7CF
:102890001FFB8DF82300FFF71BFB8DF82400FFF7CB
:1028A00017FB8DF82500FFF713FB8DF82600FFF7C7
:1028B0000FFB8DF82700FFF70BFB8DF82800FFF7C3
:1028C00007FB8DF82900FFF703FB8DF82A00FFF7BF
:1028D000FFFA8DF82B00FFF7FBFA8DF82C00FFF7BD
:1028E000F7FA8DF82D00FFF7F3FA8DF82E00FFF7B9
:1028F000EFFA8DF82F00FFF7EBFA8DF83000FFF7B5
:10290000E7FA8DF83100FFF7E3FA8DF83200FFF7B0
:10291000DFFA8DF83300384620210122FDF72AFE28
:102920005FFA88F0214605AA43F6F354FFF72AFD23
:1029300008F110060AF1020A68E600BFA2F12000C1
:10294000C0B25E283FF660AE4CF68050C0F2030085
:1029500000EB011540F21040C2F20000056038465D
:1029600020210022FDF706FE0320FFF7C3FA032013
:10297000FFF7C0FAC5F30720FFF7BCFAE8B2FFF78C
:10298000B9FAFFF7A5FA8DF80400FFF7A1FA8DF860
:102990000500FFF79DFA8DF80600FFF799FA8DF80C
:1029A0000700FFF795FA8DF80800FFF791FA8DF808
:1029B0000900FFF78DFA8DF80A00FFF789FA8DF804
:1029C0000B00FFF785FA8DF80C00FFF781FA8DF800
:1029D0000D00FFF77DFA8DF80E00FFF779FA8DF8FC
:1029E0000F00FFF775FA8DF81000FFF771FA8DF8F8
:1029F0001100FFF76DFA8DF81200FFF769FA8DF8F4
:102A00001300384620210122FDF7B4FD0099F0B2F1
:102A100001AAFFF709FD0836F6E500BF0DB0BDE8D5
:102A2000F08F000010B5C820FDF7C0FC0024C4F2F0
:102A30000204204604210022FDF79CFD20460821C7
:102A40000022FDF797FDAE20FFF754FA204608213B
:102A50000122FDF78FFD204604210122FDF78AFDAA
:102A6000204604210022FDF785FD20460821002292
:102A7000FDF780FD0020FFF73DFA204608210122E6
:102A8000FDF778FD204604210122FDF773FD204665
:102A900004210022FDF76EFD204608210022FDF7EB
:102AA00069FD1020FFF726FA204608210122FDF7D4
:102AB00061FD204604210122FDF75CFD2046042132
:102AC0000022FDF757FD204608210022FDF752FDA8
:102AD0004020FFF70FFA204608210122FDF74AFDAA
:102AE000204604210122FDF745FD20460421002255
:102AF000FDF740FD204608210022FDF73BFD812027
:102B0000FFF7F8F9204608210122FDF733FD2046A2
:102B100004210122FDF72EFD204604210022FDF7AD
:102B200029FD204608210022FDF724FDCF20FFF7D4
:102B3000E1F9204608210122FDF71CFD2046042171
:102B40000122FDF717FD204604210022FDF712FDAA
:102B5000204608210022FDF70DFDA120FFF7CAF94C
:102B6000204608210122FDF705FD2046042101220F
:102B7000FDF700FD204604210022FDF7FBFC204666
:102B800008210022FDF7F6FCC820FFF7B3F9204624
:102B900008210122FDF7EEFC204604210122FDF769
:102BA000E9FC204604210022FDF7E4FC2046082130
:102BB0000022FDF7DFFCA620FFF79CF92046082144
:102BC0000122FDF7D7FC204604210122FDF7D2FCAB
:102BD000204604210022FDF7CDFC204608210022DA
:102BE000FDF7C8FCA820FFF785F92046082101223F
:102BF000FDF7C0FC204604210122FDF7BBFC204666
:102C000004210022FDF7B6FC204608210022FDF732
:102C1000B1FC3F20FFF76EF9204608210122FDF7A5
:102C2000A9FC204604210122FDF7A4FC2046042132
:102C30000022FDF79FFC204608210022FDF79AFCA8
:102C4000D320FFF757F9204608210122FDF792FC17
:102C5000204604210122FDF78DFC2046042100229C
:102C6000FDF788FC204608210022FDF783FC0020A8
:102C7000FFF740F9204608210122FDF77BFC2046A2
:102C800004210122FDF776FC204604210022FDF7F5
:102C900071FC204608210022FDF76CFCD520FFF7CF
:102CA00029F9204608210122FDF764FC2046042171
:102CB0000122FDF75FFC204604210022FDF75AFCAB
:102CC000204608210022FDF755FC8020FFF712F96D
:102CD000204608210122FDF74DFC20460421012257
:102CE000FDF748FC204604210022FDF743FC204666
:102CF00008210022FDF73EFCD920FFF7FBF8204613
:102D000008210122FDF736FC204604210122FDF7AF
:102D100031FC204604210022FDF72CFC204608212E
:102D20000022FDF727FCF120FFF7E4F820460821F8
:102D30000122FDF71FFC204604210122FDF71AFCA9
:102D4000204604210022FDF715FC20460821002220
:102D5000FDF710FCDA20FFF7CDF82046082101220C
:102D6000FDF708FC204604210122FDF703FC204664
:102D700004210022FDF7FEFB204608210022FDF77A
:102D8000F9FB1220FFF7B6F8204608210122FDF7D3
:102D9000F1FB204604210122FDF7ECFB2046042133
:102DA0000022FDF7E7FB204608210022FDF7E2FBA9
:102DB000DB20FFF79FF8204608210122FDF7DAFB10
:102DC000204604210122FDF7D5FB204604210022E4
:102DD000FDF7D0FB204608210022FDF7CBFB402069
:102DE000FFF788F8204608210122FDF7C3FB2046A3
:102DF00004210122FDF7BEFB204604210022FDF73D
:102E0000B9FB204608210022FDF7B4FB2020FFF784
:102E100071F8204608210122FDF7ACFB2046042171
:102E20000122FDF7A7FB204604210022FDF7A2FBAB
:102E3000204608210022FDF79DFB0220FFF75AF8EB
:102E4000204608210122FDF795FB2046042101229E
:102E5000FDF790FB204604210022FDF78BFB204666
:102E600008210022FDF786FB8D20FFF743F820465E
:102E700008210122FDF77EFB204604210122FDF7F7
:102E800079FB204604210022FDF774FB204608212F
:102E90000022FDF76FFB1420FFF72CF820460821D5
:102EA0000122FDF767FB204604210122FDF762FBAA
:102EB000204604210022FDF75DFB20460821002268
:102EC000FDF758FBA420FFF715F820460821012242
:102ED000FDF750FB204604210122FDF74BFB204665
:102EE00004210022FDF746FB204608210022FDF7C1
:102EF00041FBA620FEF7FEFF204608210122FDF738
:102F000039FB204604210122FDF734FBFFF73EF890
:102F1000204604210022FDF72DFB20460821002237
:102F2000FDF728FBAF20FEF7E5FF20460821012230
:102F3000FDF720FB204604210122BDE81040FDF7EB
:102F400019BB000070B50024C4F202040546A1F1CB
:102F50005006204604210022FDF70CFB20460821E4
:102F60000022FDF707FBF0B2FEF7C4FF2046082160
:102F70000122FDF7FFFA204604210122FDF7FAFAAB
:102F8000280900F11006204604210022FDF7F2FA7C
:102F9000204608210022FDF7EDFA3046FEF7AAFF91
:102FA000204608210122FDF7E5FA204604210122EE
:102FB000FDF7E0FA204604210022FDF7DBFA204667
:102FC00008210022FDF7D6FA05F00F00FEF792FF68
:102FD000204608210122FDF7CDFA204604210122D6
:102FE000BDE87040FDF7C6BA704700002DE9F04318
:102FF00081B0089C984615460E468146FDF7C0FAFA
:10300000201A00EB0804FDF7BBFA40F20C01C2F2F3
:1030100000010968C1F3CB3161430091D9F8001078
:103020008A683240921BB2FA82F25209AA423DD01B
:10303000074618F1010031D0FDF7A2FAC01BA042EB
:1030400038D2009800990028A1F101010091D9F827
:103050000010896808BF044601EA0600801BB0FA28
:1030600080F04009A842E7D120E000BF88683040E6
:10307000801BB0FA80F04009A84217D08868304021
:10308000801BB0FA80F04009A8420FD08868304019
:10309000801BB0FA80F04009A84207D08868304011
:1030A000801BB0FA80F04009A842DFD1002001B0B7
:1030B000BDE8F083D9E900014268B1F5827F22F0D2
:1030C000E00242600BD1D9F80810B1F5004F02D0F0
:1030D000B1F5806F03D1016821F040010160D9F89A
:1030E0002810B1F5005F07D1016821F4005101609B
:1030F000016841F400510160012089F8510000206D
:1031000089F85000032001B0BDE8F083704700004B
:10311000FDF73CBAB0B592B0002443F64000CDE9CB
:103120000A44CDE908440594CDE90344CDE90144BE
:103130000094C4F202000168022541F08051016050
:10314000006800F080500090009847F20000009462
:10315000C4F20000016841F4804101600068A821C8
:1031600000F4804000900098012006904FF48030D9
:1031700007904FF480000D9004200E90119006A847
:103180000C95CDE90F15FDF7C9FB18B172B600BF5C
:10319000FEE700BF0F20CDE901054FF4A0500490D9
:1031A0004FF48050059001A805210394FDF7A6FA7D
:1031B00010B172B6FEE700BF12B0B0BD4EF6885037
:1031C000CEF20000016841F4700101607047000018
:1031D000806B0021C185C184FEF718BA81B090F8D8
:1031E0004210222921D183680246B3F5805F09D1BC
:1031F00052F8281F52F8183C002B63D003685B6814
:103200000AE000BF52F8281F13B90369002BF5D05C
:1032100003685B6803F07F030B7011680131116074
:10322000C18D01390A04C18502D001B0704700BFC9
:103230000168CA6822F02002CA60CA6822F480725B
:10324000CA604A6922F001024A61202180F84210D6
:1032500000214163026B012A3CD10163016851E8FE
:10326000031F026821F0100142E80313DBB101687B
:1032700051E8031F026821F0100142E8031393B1E3
:10328000016851E8031F026821F0100142E80313AE
:103290004BB1016851E8031F026821F0100142E8B8
:1032A0000313002BDAD101680A68D20606D5002282
:1032B00000920A680092496800910099818D01B0DE
:1032C000FEF7A2B9026852686FF35F2221F8022B61
:1032D0008162A5E701B0FEF7C1BC000010B504464D
:1032E0000068D4E902C22369016921F44051114305
:1032F0000161626943EA0C01E3691143C268194341
:1033000049F20C639A431143C1604169A26921F4F7
:10331000407141F20043114340F48062C4F2010362
:103320009A42416102D1FDF7AFFA01E0FDF798FA48
:10333000E16963681922B1F5004FA0FB020123D1B6
:103340005A00DB0FFCF73CFF48F21F51C5F2EB11AE
:10335000A0FB01235A094FF69C73C0F6FF7303F1DB
:10336000805302FB0300322303EBC000A0FB0101EA
:103370004FF4F87000EA111000EB0210C1F3421193
:1033800008442168886010BD9A009B0FFCF718FF65
:1033900048F21F51C5F2EB11A0FB01235A094FF669
:1033A0009C73C0F6FF7302FB0300322303EB001093
:1033B000A0FB0101F02000EA511000EB0210C1F364
:1033C000431108442168886010BD000040F26C4041
:1033D000C2F20000FEF71CB9FEE7000070B5002441
:1033E000C4F202040546204610210022FDF7C2F86F
:1033F0000620FEF791FD204610210122FDF7BAF8C4
:10340000204610210022FDF7B5F80520FEF784FDC7
:10341000FF20FEF781FD0646204610210122FDF720
:10342000A9F8F007ECD1204610210022FDF7A2F800
:103430002020FEF771FDC5F30710FEF76DFD280192
:10344000C0B2FEF769FD0020FEF766FD20461021A0
:103450000122FDF78FF800BF204610210022FDF762
:1034600089F80520FEF758FDFF20FEF755FD0546BB
:10347000204610210122FDF77DF8E807ECD170BD50
:1034800070470000F0B581B00024C4F20204154674
:103490000F460646204610210022FDF76BF8032058
:1034A000FEF73AFDC7F30740FEF736FDC7F30720E6
:1034B000FEF732FDF8B2FEF72FFD45B1013E00BF29
:1034C000FF20FEF729FD013D06F8010FF8D1204647
:1034D0001021012201B0BDE8F040FDF74BB800001B
:1034E000B0B50024C4F20204204610210022FDF7EA
:1034F00041F89020FEF710FD0020FEF70DFD0020A2
:10350000FEF70AFD0020FEF707FDFF20FEF704FD91
:103510000546FF20FEF700FD40EA05252046102164
:103520000122FDF727F82846B0BD00002DE9F04143
:1035300080460024080B15460F46C4F20204FFF72C
:103540004DFF204610210022FDF714F80620FEF75B
:10355000E3FC204610210122FDF70CF82046102143
:103560000022FDF707F80520FEF7D6FCFF20FEF746
:10357000D3FC0646204610210122FCF7FBFFF00792
:10358000ECD1204610210022FCF7F4FF0220FEF7C8
:10359000C3FCC7F30740FEF7BFFCC7F30720FEF7E5
:1035A000BBFCF8B2FEF7B8FC45B1A8F1010600BFBC
:1035B00016F8010FFEF7B0FC013DF9D120461021AD
:1035C0000122FCF7D7FF00BF204610210022FCF7A4
:1035D000D1FF0520FEF7A0FCFF20FEF79DFC05466D
:1035E000204610210122FCF7C5FFE807ECD1BDE819
:1035F000F081000080B582B0019040F26C40C2F2D0
:10360000000001A901224FF0FF33FEF729FB0198CA
:1036100002B080BD84B0FCF7C7FFFFF77BFDFEF76B
:10362000DFFBFEF72DFCFEF78FFC2FA000F024FA45
:10363000FFF726FFFFF754FF01462DA000F09CF88E
:10364000002001AC0390CDE9010020464FF47F41FA
:103650000822FFF717FF9DF8042029A0214600F05B
:103660008BF82BA04FF47F410822FFF75FFF204625
:103670004FF47F410822FFF705FF28A0214600F004
:103680007BF8FFF7CFF90020FEF7F0FC0020FEF7F3
:1036900013FD40F21008C2F2000823A527A62CA7AC
:1036A00030A400BF4046FEF745FD4FF4FA70FCF72A
:1036B0007DFE002000212A46FEF792FF0020022115
:1036C0003246FEF78DFF002004213A46FEF788FFC0
:1036D000002006212246FEF783FF4FF4FA70FCF724
:1036E00065FEFEF753FCDDE7496E697400000000DB
:1036F000466C6173682049443A20307825580A00A6
:103700006275666631203D2025732025580A000029
:10371000B4ABD6C7BDCCD3FD0000000062756666B1
:1037200032203D2025730A0031323836342CB4F86B
:10373000D6D0CEC4D7D6BFE2000000003136583113
:1037400036BCF2CCE5BABAD7D6BFE22C00000000F6
:10375000BBF238583136B5E3D5F341534349492CD0
:1037600000000000BBF2355837B5E3D5F3415343B1
:103770004949C2EB000000000FB4054B10B503A986
:10378000044A029800F018F810BC5DF814FB000021
:10379000F53500080000002002E008C8121F08C12B
:1037A000002AFAD170477047002001E001C1121FC2
:1037B000002AFBD1704700002DE9FF4F8DB09B46DA
:1037C0000F460446002606E025280BD05A460F99DE
:1037D0009047641C761C20780028F5D111B0304643
:1037E000BDE8F08F0025A8460122984900E0054376
:1037F00014F8013F203B02FA03F00842F7D1207889
:103800002E2817D114F8010F45F004052A280ED0F0
:103810006FF02F022078A0F1300109290AD808EBB7
:10382000880102EB410100EB0108641CF2E757F844
:10383000048B641C20786C280DD004DC4C2812D03A
:103840006A2811D104E074280DD07A280CD10AE03E
:1038500045F4001507E0617845F48015814202D1F6
:10386000641C05F58015641C2278692A45D008DCA3
:10387000002AB3D0582A69D0632A10D0642A08D10C
:103880003BE0702A67D0732A13D0752A5CD0782A5F
:103890005CD010465A460F999047761CD3E017F833
:1038A000040B8DF8000000208DF80100E94601208E
:1038B00003E057F8049B4FF0FF3069074FF0000515
:1038C00001D40AE06D1C45450DDA8542FADB19F892
:1038D00005100029F6D106E06D1C8542FCDB19F8C5
:1038E00005100029F8D12E4404E019F8010B5A46BE
:1038F0000F9990476D1EF8D2A5E00A200021CDE96E
:103900000801C5F3025002280DD001CFC117031ED4
:1039100071F100030DDA4FF0000CD0EB0C006CEBF2
:1039200001012D2308E0FF1D27F00707F7E802013A
:10393000EDE72B0504D52B238DF8283001233BE040
:10394000EB0739D02023F7E70A2000E01020002100
:10395000CDE9080107E01020002145F00405CDE97C
:1039600008014FF00808C5F3025002280FD001CF1C
:1039700000214FF0000A2B071FD5702A0DD0DDE97A
:1039800008C38CF0100C5CEA030C0CD015E0FF1D92
:1039900027F00707F7E80201EBE740228DF828201F
:1039A0004FF0010A0BE050EA010306D030238DF8F6
:1039B00028308DF8292002239A46582A04D024A2C0
:1039C0000DF120090B9209E026A2F9E7DDE90823B1
:1039D000FCF7F6FB0B9B9B5C09F8013D50EA0102EA
:1039E000F4D1ADEB090020300890680701D44FF006
:1039F00001080899884502DDA8EB010000E00020DD
:103A00008046002506E00AA85A46405D0F99904777
:103A10006D1C761C5545F6DB04E030205A460F99A4
:103A20009047761CB8F10001A8F10108F5DC05E02B
:103A300019F8010B5A460F999047761C0899481EB1
:103A400008900029F4DC641CC5E600000928010088
:103A50003031323334353637383961626364656604
:103A600000000000303132333435363738394142C6
:103A7000434445460000000010B5044601E0FFF74E
:103A8000B9FD14F8010B04490028F8D1BDE8104035
:103A90000A20FFF7AFBD000000000020000000007A
:103AA00000000000010203040607080900000000EE
:103AB00001020304D83A00080000002010040000AE
:103AC00090020008B83B000810040020A804000081
:103AD000A83700080000000041320142102324F4FE
:103AE00016060AFE0AC612E012F062F84EFE7DBB10
:103AF000C7EF01053EC7BB7DFE300D080CFEFE0C76
:103B0000082060FEFE60208F7848FE82BABA030962
:103B1000135EAA0101017E6CFEFF0301CBFFFF0FC4
:103B200039BBECC0C0C0271918F92701392975998C
:103B30000B6CFFFF0C01491A0C22E1E1E12701396E
:103B40006C0F1F1801FB1F0F0F092E27013925E2EB
:103B5000928A86167C8282827C12FE258292AAC676
:103B60005BC0C01111AD020202FE10190D012B3015
:103B70000A24A42E24E4242EA424000A56F84A4C35
:103B800048F8484C4AF81CC0201001AB20C00A116C
:103B9000300A120A07027F02070A121E0B0A0A0ADB
:103BA0007F0402560B980A1F2040404050205F803F
:083BB0000A0000000000000003
:040000050800018965
:00000001FF
