:020000040800F2
:10000000A80400209D0100081F17000871150008B2
:100010001D1700084F080008131C0008000000000E
:10002000000000000000000000000000231700088E
:1000300051080008000000002117000825170008DB
:10004000B7010008B7010008B7010008B7010008B0
:10005000B7010008B7010008B7010008B7010008A0
:10006000B7010008B7010008B7010008B701000890
:10007000B7010008B7010008B7010008B701000880
:10008000B7010008B7010008B7010008B701000870
:10009000B7010008B7010008B7010008B701000860
:1000A000B7010008B7010008B7010008B701000850
:1000B000B7010008B7010008B7010008B701000840
:1000C000B7010008B7010008B7010008B701000830
:1000D000B7010008B7010008B7010008B701000820
:1000E000B7010008B7010008B7010008B701000810
:1000F000B7010008B7010008B7010008B701000800
:10010000B7010008B7010008B7010008B7010008EF
:10011000B7010008B7010008B7010008B7010008DF
:10012000B7010008B7010008B7010008B7010008CF
:10013000B7010008B7010008B7010008B7010008BF
:10014000B7010008B7010008B7010008B7010008AF
:10015000B7010008B7010008B7010008B70100089F
:10016000B7010008B7010008B7010008B70100088F
:10017000B7010008B7010008B7010008000000003F
:10018000B7010008B7010008DFF80CD000F0DEFA74
:100190000048004729260008A80400200648804798
:1001A00006480047FEE7FEE7FEE7FEE7FEE7FEE75C
:1001B000FEE7FEE7FEE7FEE7BD170008890100083D
:1001C0002DE9F05F0546002092469B46884606468C
:1001D000814640241BE0284641464746224600F01F
:1001E00086F853465A46C01A914110D31146184614
:1001F000224600F06DF82D1A67EB01084F462246A3
:100200000120002100F064F817EB00094E41201E88
:10021000A4F10104DFDC484631462A464346BDE8E6
:10022000F09FD2B201E000F8012B491EFBD27047CB
:100230000022F6E710B513460A4604461946FFF7B2
:10024000F0FF204610BD00F0004230F000400AD020
:10025000C10D01F56071C0F3160042EA0151C208F8
:1002600040071143704700200146704701F00043EA
:1002700030B421F0004150EA010206D00A0DA2F587
:100280006072C1F31301002A02DC30BC0020704709
:10029000440F44EAC104C100E01830BC00EBC25076
:1002A00000F035B830B50B4601460020202201246D
:1002B00009E021FA02F59D4205D303FA02F5491B34
:1002C00004FA02F52844151EA2F10102F1DC30BD4A
:1002D000202A04DB203A00FA02F100207047914006
:1002E000C2F1200320FA03F3194390407047202AFB
:1002F00004DB203A21FA02F00021704721FA02F3D0
:10030000D040C2F1200291400843194670470029AD
:10031000A8BF7047401C490008BF20F0010070478B
:1003200010B4B0FA80FC00FA0CF050EA010404BFEB
:1003300010BC704749B1CCF1200421FA04F411FA41
:100340000CF118BF012121430843A3EB0C01CB1D85
:100350004FEA00614FEA102042BF002010BC7047F6
:1003600000EBC35010440029A4BF10BC7047401CD0
:10037000490008BF20F0010010BC70472DE9FE4F76
:10038000804681EA0300C00F0C46009021F0004136
:1003900023F00045B8EB0200A94105D240462146B2
:1003A00090461C460B46024623F00040104347D0BF
:1003B000270DC7F30A00C3F30A510290401A0190B7
:1003C00040286BDAC3F3130040F4801B0098924678
:1003D00020B10023D2EB030A63EB0B0B01985946C3
:1003E000C0F140025046FFF773FF06460D465046E7
:1003F0005946019A00F0BCF910EB08006141002455
:1004000087EA115284EAE7731A4340D0009A62B334
:10041000019A012A4FEA075215DC001B61EB020129
:100420004FF0004202EA0752CDE90042001C41F5BC
:10043000801132462B4600F0BCF903B0BDE8F08FC6
:1004400040462146F9E7001B61EB0201001C41F523
:10045000801300185B412018A2F5001747EB030139
:1004600040EAD570B6196D4111E06D084FEA3606C5
:1004700045EAC0754FEA0752001B61EB0201001C00
:1004800041F5801149084FEA3000001951413246C8
:100490002B4603B0BDE8F04F00F07CB90098012274
:1004A00040000023D0EB020263EBE073009821468A
:1004B0004FEAE074B8EB000061EB0401E9E783F078
:1004C00000435BE781F0004158E72DE9FE4F81EAE8
:1004D000030404F0004421F0004100944FF0000BAD
:1004E00023F0004350EA01045ED052EA03045BD0DB
:1004F000C3F30A54C1F30A552C44A4F2F334019413
:10050000A0FB0254C1F3130141F48011C3F31303A0
:1005100043F4801301FB024400FB034E840A970A54
:1005200044EA815447EA8357A4FB076802958D0A81
:1005300005FB07854FEA932C04FB0C542705029D0D
:100540004FEA065847EA1637B5EB08056EEB070C7D
:10055000870E920E47EA811742EA8312A7FB020137
:10056000B6EB0B0164EB00042B0D43EA0C335E1871
:1005700044EB1C50DA465146E7FB0201C5F3130475
:100580004FEA0B3343EA14534FEA0432019C43EA27
:100590000603A4F10C040294009CCDE900B400F021
:1005A00008F903B0BDE8F08F00200146F9E72DE916
:1005B000F04D81EA030404F0004B21F0004514469D
:1005C0004FF0000A23F0004150EA050220D054EA1F
:1005D00001021DD0C5F30A570246C5F31303C1F348
:1005E0001300C1F30A5640F4801543F48013A7EBBF
:1005F0000608101BD64608F2FD3873EB050002D33F
:1006000008F1010801E092185B41B8F1000F03DA2C
:1006100000200146BDE8F08D00204FF48011064611
:1006200084460EE0171B73EB050705D3121B63EB23
:10063000050306434CEA010C49084FEA30009218C2
:100640005B4150EA0107EDD152EA030012D082EA81
:10065000040083EA0501084305D0101BAB4106D214
:100660000122002306E000224FF0004302E06FF079
:10067000010253101AEB06004CEB085110EB0A0074
:1006800041EB0B01BDE8F04D00F084B8C1F30A5214
:10069000C1F3130140F2FF3341F480119A4202DAB0
:1006A00000200146704740F233439A42A2F233429F
:1006B00002DC5242FFF71BBEFFF70ABE30B5041E34
:1006C00071F1000404DB4FF00044404264EB01018F
:1006D000141E73F1000405DB1C464FF00043524228
:1006E00063EB0403994208BF904230BD70B50446E5
:1006F00001F000450020054304D14FF0004564425D
:1007000065EB010103F00045284305D118464FF081
:100710000043524263EB0003101B73EB010002D253
:100720004FF0004009E082EA040283EA01034FF03F
:1007300000501A4301D14FF0C0404FEA2062EFF35E
:10074000008162F31F6181F3008870BD064C074D84
:1007500006E0E06840F0010394E807009847103491
:10076000AC42F6D3FFF714FDE0260008002700088E
:10077000202A06DBCB17203A41FA02F043EAE07365
:1007800006E041FA02F3D040C2F120029140084352
:100790001946704710B5141E73F1000408DA401CA6
:1007A00041F1000192185B411A4301D120F0010090
:1007B00010BD2DE9F04D92469B4611B1B1FA81F280
:1007C00002E0B0FA80F220329046FFF781FD044645
:1007D0000F4640EA0A0041EA0B0153465A460843D5
:1007E00013D0114653EA010019D0C8F14002504617
:1007F000FFF77DFD05460E46504659464246FFF737
:1008000067FD084305D0012004E020463946BDE8D5
:10081000F08D0020054346EAE0762C4337430A98E2
:100820006305E40AA0EB08000022FD0A44EA4754ED
:100830000A3002D500200146E9E701051019694197
:10084000DDE9084500196941BDE8F04DA2E7FEE782
:10085000704772B6FEE7000070B5044600F00CF970
:100860000546601C02D004480078044400F004F9F6
:10087000401BA042FAD370BD000000202DE9F84FC4
:10088000DFF8BCA10022012503264FF00F090AF171
:10089000040BAAF1040E00BF0B6805FA02F4234012
:1008A000A34270D10F7907F00307012F01D0022F67
:1008B00016D187684FEA420806FA08FC27EA0C07B7
:1008C000D1F80CC00CFA08FC4CEA070CC0F808C0C0
:1008D0004768A7430C79C4F3001494403C43446038
:1008E0000C79E443A4070AD0C4684FEA420C06FA24
:1008F0000CF7BC438F6807FA0CF72743C7600C79E5
:1009000004F00304022C12D1D40800EB840CDCF8B0
:1009100020405707FF0E09FA07F824EA0804D1F827
:10092000108008FA07F848EA0408CCF82080046828
:100930004FEA420C06FA0CF7BC430F7907F00307A5
:1009400007FA0CF7274307604C6814F4403F70D057
:100950003C4C276847F480472760246822F003074F
:1009600004F480440094384C07EB040CDCF808488D
:1009700097074FEA177809FA08F7BC43334FB84294
:1009800002D1002724E054E0314FB84201D10127C1
:100990001EE0304FB84201D1022719E02E4FB84275
:1009A00001D1032714E02D4FB84201D104270FE0F5
:1009B0002B4FB84201D105270AE02A4FB84201D196
:1009C000062705E0284FB84201D1072700E0082795
:1009D00007FA08F72743CCF80878DAF800405746BA
:1009E000D1F804C09C435FEACC2C00D51C433C608A
:1009F000DBF800405F46D1F804C09C435FEA8C2CD2
:100A000000D51C433C60DEF800407746D1F804C0B6
:100A10009C435FEA8C3C00D51C433C60084F083F78
:100A20003C68D1F804C09C435FEACC3C00D51C4331
:100A30003C60521C102AFFF42FAFBDE8F88F000075
:100A4000083C0140443802400030014000000240B0
:100A50000004024000080240000C02400010024066
:100A60000014024000180240001C02400AB18161DB
:100A700070470904FBE700000148806870470000E8
:100A800000000020024881680278114481607047AC
:100A9000000000200B4810B5016841F400710160AE
:100AA000016841F480610160016841F48071016076
:100AB000032000F061F80F2000F006F800F024F8A1
:100AC000002010BD003C024070B50D4D04464FF4AF
:100AD0007A712878B1FBF0F00A490968B1FBF0F0AF
:100AE00000F0FCFA48B9102C07D200222146501E13
:100AF00000F022F800206C6070BD012070BD000085
:100B0000000000200C0000200A4808B5016841F4EC
:100B100080410160006800F4804000900548001F9B
:100B2000016841F080510160006800F08050009041
:100B300008BD000044380240F0B40E4B1B680C4660
:100B4000C3F30223C3F10705042D00D90425191DA1
:100B5000072901D2002300E0DB1E012606FA05F179
:100B6000491E214099409E40761E16403143F0BCFC
:100B700001F060B80CED00E0064900F007020868DB
:100B80004FF6FF03184040EA0220034A1043086072
:100B9000704700000CED00E00000FA052DE9F04779
:100BA0000E46050065D0DFF81481D8F80000F7B2D2
:100BB00000F00700B04207D288F80070D8F80000B3
:100BC00000F00700B04254D128683D4C810712D58F
:100BD000400703D5206840F4E050206028780007E3
:100BE00003D5206840F4604020602068A96820F0A8
:100BF000F000084320602878C0072DD0304968688D
:100C00000839012812D0022813D0032811D009680E
:100C1000890700292DDA216821F0030101432160B1
:100C2000FFF72AFF814641F2883A0EE009688903FE
:100C3000EFE709688901ECE7FFF71EFFA0EB090168
:100C4000514502D90320BDE8F0872068696800F0AB
:100C50000C00B0EB810FEFD1D8F80010404601F046
:100C60000701B14207D90770006800F00700B042E1
:100C700001D00120E7E72878400705D52068E9681A
:100C800020F4E050084320602878000706D520684B
:100C9000296920F4604040EAC100206000F038F883
:100CA0002168084AC1F30311515CC8400649086035
:100CB00006480068FFF708FF0020C4E7003C024038
:100CC00008380240C82600080C000020040000205C
:100CD0000448054900680968044AC1F38221515C4F
:100CE000C84070470C00002008380240D826000891
:100CF0000448054900680968044AC1F34231515C5F
:100D0000C84070470C00002008380240D826000870
:100D1000154810B5006810F00C02144813D04110AB
:100D2000042A0FD0082A0ED10F4C241F22682368F2
:100D300002F03F025B0207D52068C0F38810A0FBD9
:100D4000010106E0084610BD2168C1F38811A1FB2E
:100D500000010023FFF734FA2168C1F30141491C67
:100D60004900B0FBF1F010BD083802400024F40047
:100D70002DE9F84F04006ED02078DFF84C93C007BF
:100D8000A9F104054AD009F104000168C1F3810109
:100D9000012908D00068C0F3810002280AD1D9F8DF
:100DA0000000400206D52868800337D56068002817
:100DB000E1D033E06068B0F5803F10D0B0F5A02FEF
:100DC000286810D020F480302860286820F4802023
:100DD00028606068A8B1FFF74FFE06460DE028685E
:100DE00040F48030F4E740F480202860F7E700BF4B
:100DF000FFF742FE801B642873D828688003F7D56C
:100E00000CE0FFF739FE064605E000BFFFF734FEB1
:100E1000801B6428F0D828688003F7D42078DFF896
:100E2000AC8280074FF0000A3ED5A748001D01683C
:100E300011F00C0F08D00068C0F3810002280BD11C
:100E4000D9F80000400207D42868800716D5E0686A
:100E5000012800D112E033E1E068B8B10120C8F800
:100E60000000FFF709FE064605E000BFFFF704FE9D
:100E7000801B0228C0D828688007F7D52868216918
:100E800020F0F80040EAC10028600DE0C8F800A09A
:100E9000FFF7F2FD064604E0FFF7EEFD801B022897
:100EA0001FD828688007F7D42078000722D5864FFE
:100EB00087486169703771B101210160FFF7DCFD7E
:100EC000064604E0FFF7D8FD801B022809D83868E1
:100ED0008007F7D50EE0C0F800A0FFF7CDFD06466D
:100EE00005E082E0FFF7C8FD801B02287DD8386846
:100EF0008007F7D42078400768D5DFF8CCB1002709
:100F00000BF13C0BDBF80000C0000BD4DBF8001049
:100F100041F08051CBF80010DBF80000012700F011
:100F2000805000906B4E3068C00510D4306840F49B
:100F300080703060FFF7A0FD009005E0FFF79CFD9A
:100F40000099401A022850D83068C005F6D55E4E88
:100F5000A0686C3601280FD00528306810D020F02A
:100F600001003060306820F004003060A068B8B143
:100F7000FFF782FD00900FE0306840F00100F4E7D9
:100F800040F004003060F7E7FFF776FD0099411A62
:100F900041F28830814266D830688007F4D50EE08F
:100FA000FFF76AFD009007E0FFF766FD0099411A20
:100FB00041F28830814256D830688007F4D42FB18E
:100FC000DBF8001021F08051CBF80010A069C8B305
:100FD0003D49091D0968C1F3810102294AD002284F
:100FE000504607D0C8F8600000E03CE0FFF744FD41
:100FF00004463BE04746C8F86000FFF73DFD064663
:1010000005E000BFFFF738FD801B02282BD82868B9
:101010008001F7D4D4E907010843A16A2E4A4908A0
:1010200002EB0141626A41EA8211084394F82C10F4
:1010300040EA0161C9F8001001203866FFF71CFD85
:10104000044606E03EE000BFFFF716FD001B022845
:1010500009D828688001F7D534E000BFFFF70CFD00
:10106000001B022802D90320BDE8F88F2868800100
:10107000F4D427E00128F7D0D9F80000E26900F4A1
:10108000800191421CD1226A00F03F01914217D1A8
:1010900047F6C071626A0140B1EB821F10D1A26AAB
:1010A0004FF0FF3300F4403103EB5202B1EB024F3B
:1010B00006D194F82C1000F07060B0EB016F01D0F5
:1010C0000120D1E70020CFE704380240000047426A
:1010D000800E4742007000400000FFFF10B5401E28
:1010E000B0F1807F01D3012010BD4FF0E02460619A
:1010F0000F21601700F09EFD0020A06107202061F5
:10110000002010BD70B590F83C20012A32D0012497
:1011100080F83C40022280F83D2003685A689D68B0
:1011200022F070060A6832435A60134B02689A42F2
:1011300014D0B2F1804F11D0104B9A420ED0104B08
:101140009A420BD00F4B9A4208D00F4B9A4205D0CF
:101150000E4B9A4202D00E4B9A4204D1496825F0B8
:1011600080031943916080F83D40002180F83C10D5
:10117000084670BD022070BD000001400004004020
:1011800000080040000C0040000401400040014005
:101190000018004010B586B0044614216846FFF7D9
:1011A00047F80E492068884215D10D480021026891
:1011B00042F008020260006800F0080005904FF459
:1011C000004000900220CDE90101CDE903106946FD
:1011D0000448FFF753FB06B010BD000000080040B4
:1011E00030380240000C024070B5044690F83C00D4
:1011F00000260D4601280FD0012084F83C006AB17A
:10120000042A1DD0082A2FD00C2A3FD00126002006
:1012100084F83C00304670BD022070BD206800F0AC
:101220004FFB2068816941F0080181612068816974
:1012300021F004018161206881692A69114311E06C
:10124000206800F06DFB2068816941F400618161D4
:101250002068816921F480618161206881692A693F
:1012600041EA02218161D2E7206800F08FFB20680B
:10127000C16941F00801C1612068C16921F0040120
:10128000C1612068C1692A69114311E0206800F03A
:10129000B1FB2068C16941F40061C1612068C16986
:1012A00021F48061C1612068C1692A6941EA022193
:1012B000C161ACE710B5040003D094F83D0010B153
:1012C00007E0012010BD002084F83C00204600F01B
:1012D0001FF8022084F83D00211D206800F076FAF6
:1012E000012084F8460084F83E0084F83F0084F82A
:1012F000400084F8410084F8420084F8430084F8F8
:10130000440084F8450084F83D00002010BD000032
:1013100008B500680649884208D10648016841F0CE
:1013200004010160006800F00400009008BD0000A6
:10133000000800404038024010B50446022249B17E
:1013400004290ED0082913D094F84100012816D0A2
:10135000012010BD94F83E000128F9D184F83E2008
:101360000FE094F83F000128F2D184F83F2008E014
:1013700094F840000128EBD184F8402001E084F883
:1013800041200122206800F08DFA16492068164A93
:10139000884201D0904203D1436C43F4004343643C
:1013A0002068884213D0B0F1804F10D00F49884296
:1013B0000DD00F4988420AD00E49884207D090428A
:1013C00005D00D49884202D00C49884204D1816879
:1013D00001F00701062903D0016841F00101016015
:1013E000002010BD00000140000401400004004046
:1013F00000080040000C0040004001400018004080
:1014000070B5040004D094F84100002510B106E046
:10141000012070BD84F84050204600F023F82420BD
:1014200084F841002068C16821F40051C160204661
:1014300000F030FB2068016921F4904101612068CF
:10144000416921F02A0141612068C16841F40051DD
:10145000C1606564202084F8410084F8420065631F
:10146000002070BD10B586B0044614216846FEF712
:10147000DFFE14492068884221D113480021026808
:1014800042F010020260006800F0100005900E4863
:101490001438026842F001020260006800F00100A6
:1014A00005904FF4C06000900220CDE901010320B7
:1014B00003900720049069460448FFF7DFF906B05F
:1014C00010BD0000001001404438024000000240FE
:1014D0002DE9F843044690F84100984616460D461B
:1014E000202802D00220BDE8F88385B17EB100201B
:1014F0006064212084F84100FFF7BEFAA68481468B
:10150000E684A0682027B0F5805F02D003E00120C8
:10151000E9E7206910B12E4600250EE000260CE018
:101520008021204600F03CFBA8B9C6B116F8010B9B
:1015300021684860E08C401EE084E08C4B464FF010
:101540000002CDF800800028EAD14FF0400120468B
:1015500000F026FB40B184F841700320C3E735F862
:10156000020BC0F30800E3E784F841700020BAE7FB
:10157000FEE7000030B587B014216846FEF758FE3C
:1015800019480024016841F080010160016801F000
:1015900080010591016841F008010160016801F0D6
:1015A00008010591016841F004010160016801F042
:1015B00004010591016841F00101016000680B4DD3
:1015C00000F001000590002240212846FFF74EFA66
:1015D000402000900120CDE901046946284603948B
:1015E000FFF74CF907B030BD303802400008024028
:1015F00010B58AB0002407941C2168460894FEF7B1
:1016000017FE1A48184942F2107201600921C0E918
:101610000114174909684908B1FBF2F1491EC0E9F4
:10162000031480218161FFF745FE08B1FFF711F92E
:10163000079407A90D480894FFF764FD08B1FFF768
:1016400008F96020CDE9000402940C22694607489D
:101650000494FFF7C9FD08B1FFF7FBF80348FFF753
:1016600099FD0AB010BD00000008004014000020E1
:101670000C00002010B510EE100AFEF7E4FD41EC5E
:10168000100B9FED121B00F01FFBB0EE401AF0EEA6
:10169000601A9FED100B00F0DDFA51EC100BFEF715
:1016A000E5FD0E4900EE100AD1ED030A0968F8EED7
:1016B000600A20EE800ADFED0A0A80EE201ABCEEF6
:1016C000C10A10EE100A086410BD000000000000FE
:1016D000000059400000000000000000140000203D
:1016E0000000C8420C4810B50A4901604FF4E131CE
:1016F0004160002181600C22C160C0E90412816157
:10170000C161FFF77DFE002803D0BDE81040FFF760
:10171000A0B810BD001001405C000020FEE7FEE70D
:1017200070477047FFF7AEB930B593B030216846C7
:10173000FEF77EFD14210CA8FEF77AFD1D4800255A
:10174000016841F080510160006800F08050119004
:101750001948016841F4804101600068022400F4E6
:101760008040119001200090000401908001CDE99B
:10177000064008AA0420A82182E813000B906846BE
:10178000FFF7F6FA08B172B6FEE70CA90F2081E860
:1017900031004FF4A0500F904FF48050109005216D
:1017A0000CA8FFF7FBF9002801D072B6FEE713B0D2
:1017B00030BD00004038024000700040024801681F
:1017C00041F470010160704788ED00E0F0B50268F7
:1017D000294C2A4D2A4E2B4F2B4B4FF0804CA042C8
:1017E00009D0604507D0A84205D0B04203D0B84226
:1017F00001D0984204D122F0700E4A6842EA0E02EB
:10180000A0421BD0604519D0A84217D0B04215D0D5
:10181000B84213D0984211D01C4DA8420ED01C4D96
:10182000A8420BD01B4DA84208D01B4DA84205D0A2
:101830001A4DA84202D01A4DA84203D122F4407595
:10184000CA682A434D6922F080022A4302608A68EE
:10185000C2620A688262A04201D0984201D109693D
:101860000163012141610169C90703D0016921F0C8
:1018700001010161F0BD00000000014000040040D2
:1018800000080040000C00400004014000400140FE
:10189000004401400048014000180040001C004086
:1018A0000020004010B501F01F030121046A994097
:1018B0008C430462016A9A401143016210BD00002A
:1018C000F0B5036A026A22F001020262426884698A
:1018D000124E24F073050C682C4323F002058B682C
:1018E0002B430D4DA84201D0B04205D123F008078B
:1018F000CB683B4323F00403A84201D0B04205D19A
:101900004D6922F4407215438A692A43426084611A
:10191000496841630362F0BD0000014000040140DA
:10192000F0B5026A036A23F0100303624368846916
:101930000D6824F4E64444EA05248D6822F0200270
:1019400042EA05120F4D104EA84201D0B04206D116
:10195000CF6822F0800242EA071222F04002A84239
:1019600001D0B04207D14D6923F4406343EA8503B7
:101970008D6943EA8503436084614968816302623B
:10198000F0BD00000000014000040140F0B5026A13
:10199000036A23F4807303624368C46922F400720B
:1019A00024F073050C68124E2C438D6842EA052220
:1019B0000E4DA84201D0B04206D1CF6822F4006299
:1019C00042EA072222F48062A84201D0B04207D145
:1019D0004D6923F4405343EA05138D6943EA051327
:1019E0004360C4614968C1630262F0BD0000014008
:1019F0000004014030B5046A026A22F48052026297
:101A00004268C3690D6823F4E64343EA05238D6801
:101A100024F4005444EA0534084DA84202D0084D8D
:101A2000A84204D14D6922F4804242EA8512426004
:101A3000C36149680164046230BD000000000140D8
:101A40000004014001680C3151E8002F22F490722B
:101A500041E80023002BF5D10168143151E8002F33
:101A600022F0010241E80023002BF5D1016B01298E
:101A700009D101680C3151E8002F22F0100241E831
:101A80000023002BF5D1202180F8421000210163B2
:101A90007047000070B5044600680169E26821F4EF
:101AA0004051114301612169A068E26908436169FD
:101AB000114308432168CA6849F20C639A43024300
:101AC000CA6020684169A26921F4407111434161F3
:101AD00031492068884202D03049884202D1FFF75C
:101AE00007F901E0FFF7F4F8E26900231921642502
:101AF0003226B2F5004F626828D0A0FB0101930F97
:101B00009200FEF75DFB0146B0FBF5F06FF01802A6
:101B1000504301EB800006EB0010B0FBF5F000F045
:101B2000F002B1FBF5F002EB0012B1FBF5F06FF043
:101B30001803584301EB800006EB0010B0FBF5F0F2
:101B400000F00F0021681044886070BDA0FB010107
:101B500092185B41FEF734FB0146B0FBF5F0020141
:101B6000B1FBF5F06FF01803584301EB800006EB72
:101B7000C000B0FBF5F000F0F80002EB4002B1FB52
:101B8000F5F0584301EB800006EBC000B0FBF5F028
:101B900000F00700D6E700000010014000140140EB
:101BA0002DE9F843984617460D460446089E24E062
:101BB000701C22D0FEF760FFA0EB0800B0421AD8DC
:101BC000CEB12068C168490717D5802D15D0402DAA
:101BD00013D00168C94309070FD401680025406884
:101BE00000902046FFF72EFF0820606484F84050E4
:101BF0000120BDE8F8830320FBE72068006835EA90
:101C0000000004D00020B842D2D00020F1E701202B
:101C1000F9E7FEE70FB4054B10B503A9044A029893
:101C200000F05EF910BC5DF814FB000011260008FE
:101C3000100000200907090E002804DB00F1E02055
:101C400080F80014704700F00F0000F1E02080F8E9
:101C5000141D704700B52DED048BB0EE418AF0EEF7
:101C6000618AB0EE409AF0EE609A83B053EC182B84
:101C700051EC190BFEF73AFD00F07040B0F1005F37
:101C80001AD018EE101A18EE900A8DED008B00296C
:101C900018BF0121084320F00040C0F17F6000F12F
:101CA000E040C00F01BFB0EE480AF0EE680A03B092
:101CB000BDEC048B08BF00BDB0EE490A03B0F0EEE6
:101CC000690ABDEC048B00BD00B52DED048BB0EEB0
:101CD000418AF0EE618AB0EE409AF0EE609A83B0ED
:101CE00053EC182B51EC190BFEF700FD00F070407F
:101CF000B0F1004F1AD018EE101A18EE900A8DEDC0
:101D0000008B002918BF0121084320F00040C0F1DA
:101D10007F6000F1E040C00F01BFB0EE480AF0EE76
:101D2000680A03B0BDEC048B08BF00BDB0EE490AE1
:101D300003B0F0EE690ABDEC048B00BD02E008C8F8
:101D4000121F08C1002AFAD170477047002001E035
:101D500001C1121F002AFBD1704700002DE9FF5F6F
:101D600082B00021DDE90430020DDDF840B003430C
:101D700018D044F61050A2F2FF32424315141198C5
:101D800001281FD0A5EB0B00401C5FEA000A4FF0B2
:101D900000064E4FDFF83891B046504615D5CAF1CF
:101DA000000413E0119801244AA3012801D16FEA2D
:101DB0000B010298119AC0E90031C0E9024206B055
:101DC000BDE8F09FCBF10000DFE704460021404A68
:101DD000491842EB0450CDE9001012E0E00707D0AB
:101DE00032463B4640464946FEF76FFB80468946F1
:101DF00032463B4610461946FEF767FB06460F463D
:101E00006410002CEAD1DDE90401DDE90023BAF118
:101E1000000F06DAFEF759FB42464B46FEF755FB2C
:101E200005E0FEF7C4FB42464B46FEF7C0FB044606
:101E30000E460022284BFEF741FC03D84FF0FF303E
:101E4000014607E00022254B20463146FEF796FA70
:101E5000FEF71CFC102409E0002C0ADB0A220023F8
:101E6000FEF7AEF9039B30321A55641E50EA0102A8
:101E7000F2D1641C039AC4F111031444119A012A8B
:101E800003D0012208430DD10AE0084304D000200A
:101E90004FF0110B119072E7A3EB0B056D1E0DE0D7
:101EA0005B4504DD4FF0000205F1010504E003DAB3
:101EB0004FF00002A5F10105002AECD0029811991B
:101EC000C0E90231C0E9004579E700000000144094
:101ED0000000F03F300000000000F0430000E03F51
:101EE0002DE9FF4F95B09B468946064600250FE237
:101EF000252877D100242746F84A0121059400E0DF
:101F0000044316F8013F203B01FA03F01042F7D1D9
:101F100030782A2811D06FF02F033078A0F13002EA
:101F2000092A16D8059A44F0020402EB820203EB58
:101F300042021044761C0590EFE759F8042B0592F5
:101F4000002A03DA504244F40054059044F002049D
:101F5000761C30782E2816D116F8010F44F00404B0
:101F60002A280DD06FF02F023078A0F13003092B12
:101F700009D807EB870302EB4303C718761CF3E786
:101F800059F8047B761C30786C280FD006DC4C287E
:101F900017D068280DD06A2814D104E0742810D016
:101FA0007A280FD10DE044F400140AE044F48014C0
:101FB00001E044F440147278824202D104F58014A6
:101FC000761C761C307866280BD013DC582877D026
:101FD00009DC002875D04528F6D04628F4D04728DB
:101FE0001AD19DE118E0632835D0642879D065289E
:101FF00012D195E1702873D008DC6728F1D06928E8
:102000006FD06E280DD06F2806D1B5E073282CD084
:10201000752875D0782874D05A46179990476D1C4A
:1020200075E1C4F30250022809D003280DD0D9F875
:10203000001004280DD00D6009F1040967E1D9F8FA
:102040000010EA17C1E90052F6E7D9F800100D8038
:10205000F2E70D70F0E719F8041B8DF8001000206E
:102060008DF80100EA46012003E059F804AB4FF077
:10207000FF3061074FF0000102D40DE008F10101CB
:102080008846B9420FDA8045F8DB1AF808100029B3
:10209000F4D108E008F1010188468142FADB1AF820
:1020A00008100029F6D105985B46A0EB08072146E9
:1020B0003846179A00F094FA284400EB080507E028
:1020C0004DE029E10DE01AF8010B5A4617999047A7
:1020D000B8F10108F7D25B4621463846179A13E15A
:1020E00042E00A220092C4F302524FF0000A022A90
:1020F00008D059F804CB032A4FEAEC710AD00DE05E
:1021000029E02AE009F1070121F00702F2E802C103
:10211000914609E00FFA8CFC4FEAEC71042A03D1D6
:102120004FFA8CFC4FEAEC71002907DA0A460021CD
:10213000DCF1000C61EB02012D2202E0220504D546
:102140002B228DF80420012203E0E20701D0202297
:10215000F7E7904659E00A2102E010220DE0102135
:102160004FF0000A00910BE010224FF0000A44F0FB
:1021700004040827009203E008224FF0000A0092AE
:10218000C4F30252022A05D059F804CB0021032AD5
:1021900008D009E009F1070121F00702F2E802C1C5
:1021A000914605E01FFA8CFC042A01D10CF0FF0CCB
:1021B0004FF00008220728D5702806D0009B83F036
:1021C000100353EA0A0305D00EE040228DF80420E4
:1021D000012208E05CEA010206D030228DF80420DA
:1021E0008DF8050002229046009B83F0080353EA15
:1021F0000A030AD15CEA010201D1620705D5302247
:102200008DF804204FF001087F1E582804D034A018
:1022100003900EA802900DE036A0F9E75346604601
:10222000009AFDF7CDFF84460398825C0298401E19
:10223000029002705CEA0100F0D1029806A9081A27
:1022400000F1200A600702D524F4803400E0012761
:10225000574502DDA7EB0A0000E0002000EB0A0171
:10226000009005984144401A0590E00306D45B466F
:102270002146179A059800F0B3F90544002706E0B7
:1022800001A85A46C05D179990476D1C7F1C4745B1
:10229000F6DBE0030CD55B462146179A059800F063
:1022A0009FF9054404E030205A46179990476D1C69
:1022B0000099481E00900029F5DC08E00298029978
:1022C0005A460078491C0291179990476D1CBAF143
:1022D0000001AAF1010AF1DC65E100000928010012
:1022E000303132333435363738396162636465668C
:1022F000000000003031323334353637383941424E
:10230000434445460000000000F058F90544761C9F
:10231000307800287FF4ECAD19B02846BDE8F08F86
:10232000620700D4062709F1070222F0070CFCE837
:102330000223E14603F000485FEA080C02D00FF2E6
:10234000702C0DE05FEA045C02D50FF2682C07E008
:102350005FEAC47C02D00FF2602C01E0AFF2700C97
:102360004FF0FF3823F00043CDF850C065280CD063
:1023700006DC452809D046281DD047283DD13DE040
:10238000662818D067287ED138E00021112F01DBA4
:10239000112000E0781CCDE9000106A90EA8FFF786
:1023A000DDFCDDE90F010E9A03910021009207F197
:1023B000010A04914DE04FF000400097CDE9011073
:1023C00006A90EA8FFF7CAFCDDE90F0203920E9BD7
:1023D00011990022DDF80CA00093049211B9791C28
:1023E00000EB010AB7EB0A0004D4C0F1FF3007F19B
:1023F000010A0490AAEB0700019044E0012F00DAE3
:1024000001270021112F01DD112000E03846CDE920
:10241000000106A90EA8FFF7A1FCDDE90F010E9A45
:102420000391002104910092BA4621070CD403992C
:10243000514500DA8A46BAF1010F05DD009AAAF18A
:102440000101515C302908D0B84202DA10F1040FC2
:1024500006DA0121CDE9011015E0AAF10101E9E751
:10246000002805DC049901440491AAEB000102E074
:10247000411C514500DD8A460499401A401C0190D8
:102480004FF000400290200704D40198504501DB32
:10249000CDF8048000208DF84F0002980DF14F0711
:1024A000B0F1004F25D02B200E9002984FF002087B
:1024B00000280CDA404202902D200E9007E00A21FD
:1024C0000298FDF7EFFE3031029007F8011DB8F1D8
:1024D0000001A8F10108F2DC02980028EFD1791E72
:1024E0000E980870307800F0200040F0450007F8A2
:1024F000020D12A8C01B00F107081498007800B163
:10250000012000EB0A01019801EBE07105984144BC
:10251000401A401E0590E00306D45B462146179AF8
:10252000059800F05DF805441498007818B15A46F3
:10253000179990476D1CE00324D55B462146179AF6
:10254000059800F04DF805441CE00498002807DBCE
:10255000DDE90301884203DD0098405C179901E042
:10256000179930205A469047049805F10105401C00
:1025700004900198401E019004D12E205A461799CC
:1025800090476D1CBAF10001AAF1010ADDDC05E0FB
:1025900017F8010B5A46179990476D1CB8F10001C6
:1025A000A8F10108F4DC5B462146179A0598ABE6D2
:1025B0002D0000002B000000200000002DE9F0415C
:1025C000044600251E461746880404D405E0394613
:1025D0002020B0476D1C641EF9D52846BDE8F08167
:1025E0002DE9F041044600251E469046C80301D55A
:1025F000302700E02027880404D505E0414638460E
:10260000B0476D1C641EF9D52846BDE8F081000076
:1026100013B54FF0FF33012269460248FEF758FF19
:1026200000981CBD5C0000202DED028BFEF732FAF5
:10263000FFF77AF8FEF79EFFFEF7DAFFFFF752F892
:1026400018A0FFF7E7FA0C211848FEF775FE9FED7A
:10265000188A0124174EA51E00EE104AB8EEC00AD3
:1026600038EE008A18EE100AB04201DB2C4605E075
:10267000B5EEC08AF1EE10FA00D80124B0EE480A97
:10268000FEF7F8FF18EE100AFDF7DDFD41EC100B28
:1026900009A053EC102BFFF7BDFA0A20FEF7DCF877
:1026A000DAE70000696E69740A0000001400002077
:1026B000000000000000C84264757479202D3E209F
:1026C000252E32660A000000000000000000000015
:1026D00001020304060708090000000001020304C8
:1026E0000027000800000020140000003C1D000826
:1026F0001427000814000020940400004C1D00085A
:102700000100000010000000000000000024F400A0
:0427100000000000C5
:040000050800018965
:00000001FF
