:020000040800F2
:10000000A80400209D0100083F1B0008591A0008A1
:100010003D1B000831090008991E0008000000007F
:10002000000000000000000000000000431B00086A
:100030003309000800000000411B0008451B0008B0
:10004000B7010008B7010008B7010008B7010008B0
:10005000B7010008B7010008B7010008B7010008A0
:10006000B7010008B7010008B7010008B701000890
:10007000B7010008B7010008B7010008B701000880
:10008000B7010008B7010008B7010008B701000870
:10009000B7010008B7010008B7010008B701000860
:1000A000B7010008B7010008B7010008B701000850
:1000B000B7010008B7010008B7010008B701000840
:1000C000B7010008B7010008B7010008B701000830
:1000D000B70100088D1E0008B7010008B70100082D
:1000E000B7010008B7010008B7010008B701000810
:1000F000B7010008B7010008B7010008B701000800
:10010000B7010008B7010008B7010008B7010008EF
:10011000B7010008B7010008B7010008B7010008DF
:10012000B7010008B7010008B7010008B7010008CF
:10013000B7010008B7010008B7010008B7010008BF
:10014000B7010008B7010008B7010008B7010008AF
:10015000B7010008B7010008B7010008B70100089F
:10016000B7010008B7010008B7010008B70100088F
:10017000B7010008B7010008B7010008000000003F
:10018000B7010008B7010008DFF80CD000F018FB39
:1001900000480047C9270008A804002006488047F7
:1001A00006480047FEE7FEE7FEE7FEE7FEE7FEE75C
:1001B000FEE7FEE7FEE7FEE7DD1B00088901000819
:1001C0002DE9F05F0546002092469B46884606468C
:1001D000814640241BE0284641464746224600F01F
:1001E00074F953465A46C01A914110D31146184625
:1001F000224600F05BF92D1A67EB01084F462246B4
:100200000120002100F052F917EB00094E41201E99
:10021000A4F10104DFDC484631462A464346BDE8E6
:10022000F09FD2B201E000F8012B491EFBD27047CB
:100230000022F6E710B513460A4604461946FFF7B2
:10024000F0FF204610BD2DE9FE4F81EA030404F0C3
:10025000004421F0004100944FF0000B23F00043D4
:1002600050EA01045ED052EA03045BD0C3F30A549F
:10027000C1F30A552C44A4F2F3340194A0FB0254B8
:10028000C1F3130141F48011C3F3130343F480134A
:1002900001FB024400FB034E840A970A44EA81549E
:1002A00047EA8357A4FB076802958D0A05FB07857B
:1002B0004FEA932C04FB0C542705029D4FEA065885
:1002C00047EA1637B5EB08056EEB070C870E920E62
:1002D00047EA811742EA8312A7FB0201B6EB0B0142
:1002E00064EB00042B0D43EA0C335E1844EB1C5006
:1002F000DA465146E7FB0201C5F313044FEA0B331C
:1003000043EA14534FEA0432019C43EA0603A4F182
:100310000C040294009CCDE900B400F02CF903B069
:10032000BDE8F08F00200146F9E72DE9F04D81EAA4
:10033000030404F0004B21F0004514464FF0000A7E
:1003400023F0004150EA050220D054EA01021DD0FA
:10035000C5F30A570246C5F31303C1F31300C1F3F3
:100360000A5640F4801543F48013A7EB0608101BCF
:10037000D64608F2FD3873EB050002D308F10108F8
:1003800001E092185B41B8F1000F03DA002001464A
:10039000BDE8F08D00204FF48011064684460EE043
:1003A000171B73EB050705D3121B63EB050306430D
:1003B0004CEA010C49084FEA300092185B4150EAC0
:1003C0000107EDD152EA030012D082EA040083EA69
:1003D0000501084305D0101BAB4106D201220023C2
:1003E00006E000224FF0004302E06FF001025310DC
:1003F0001AEB06004CEB085110EB0A0041EB0B0125
:10040000BDE8F04D00F0A8B80EB540F233410291BE
:100410000021CDE900110A460B4600F0ACF803B00C
:1004200000BD00F0004230F000400AD0C10D01F5DF
:100430006071C0F3160042EA0151C208400711433F
:10044000704700200146704701F0004330B421F0AE
:10045000004150EA010206D00A0DA2F56072C1F314
:100460001301002A02DC30BC00207047440F44EA2C
:10047000C104C100E01830BC00EBC25000F035B838
:1004800030B50B46014600202022012409E021FA64
:1004900002F59D4205D303FA02F5491B04FA02F561
:1004A0002844151EA2F10102F1DC30BD202A04DB34
:1004B000203A00FA02F1002070479140C2F1200377
:1004C00020FA03F3194390407047202A04DB203AB6
:1004D00021FA02F00021704721FA02F3D040C2F164
:1004E000200291400843194670470029A8BF704771
:1004F000401C490008BF20F00100704710B4B0FA5A
:1005000080FC00FA0CF050EA010404BF10BC7047F4
:1005100049B1CCF1200421FA04F411FA0CF118BF0E
:10052000012121430843A3EB0C01CB1D4FEA0061DD
:100530004FEA102042BF002010BC704700EBC350B0
:1005400010440029A4BF10BC7047401C490008BFDC
:1005500020F0010010BC704710B5141E73F10004A8
:1005600008DA401C41F1000192185B411A4301D1A5
:1005700020F0010010BD2DE9F04D92469B4611B1CF
:10058000B1FA81F202E0B0FA80F220329046FFF731
:100590008DFF04460F4640EA0A0041EA0B0153462C
:1005A0005A46084313D0114653EA010019D0C8F146
:1005B00040025046FFF789FF05460E465046594611
:1005C0004246FFF773FF084305D0012004E02046B0
:1005D0003946BDE8F08D0020054346EAE0762C431D
:1005E00037430A986305E40AA0EB08000022FD0ADD
:1005F00044EA47540A3002D500200146E9E70105E4
:1006000010196941DDE9084500196941BDE8F04D5F
:10061000A2E72DE9FE4F804681EA0300C00F0C4699
:10062000009021F0004123F00045B8EB0200A94101
:1006300005D24046214690461C460B46024623F012
:100640000040104347D0270DC7F30A00C3F30A51F7
:100650000290401A019040286BDAC3F3130040F473
:10066000801B0098924620B10023D2EB030A63EB73
:100670000B0B01985946C0F140025046FFF716FF98
:1006800006460D4650465946019A00F0ABF810EB6D
:1006900008006141002487EA115284EAE7731A4393
:1006A00040D0009A62B3019A012A4FEA075215DC42
:1006B000001B61EB02014FF0004202EA0752CDE954
:1006C0000042001C41F5801132462B46FFF753FFD4
:1006D00003B0BDE8F08F40462146F9E7001B61EB0F
:1006E0000201001C41F5801300185B412018A2F59F
:1006F000001747EB030140EAD570B6196D4111E0D0
:100700006D084FEA360645EAC0754FEA0752001BEE
:1007100061EB0201001C41F5801149084FEA3000ED
:100720000019514132462B4603B0BDE8F04FFFF7A8
:1007300013BF0098012240000023D0EB020263EBBC
:10074000E073009821464FEAE074B8EB000061EBDB
:100750000401E9E783F000435BE781F0004158E7DB
:10076000C1F30A52C1F3130140F2FF3341F4801187
:100770009A4202DA00200146704740F233439A421F
:10078000A2F2334202DC5242FFF79FBEFFF78EBE59
:1007900030B5041E71F1000404DB4FF00044404208
:1007A00064EB0101141E73F1000405DB1C464FF0DD
:1007B0000043524263EB0403994208BF904230BDAC
:1007C000064C074D06E0E06840F0010394E807009E
:1007D00098471034AC42F6D3FFF7DAFC382900080A
:1007E00058290008202A06DBCB17203A41FA02F0EC
:1007F00043EAE07306E041FA02F3D040C2F120027E
:100800009140084319467047464910B54A6822F49A
:1008100040324A604A6843681A434A6001684A683D
:1008200022F480724A6001684A68036942EA03223E
:100830004A6001684A6822F040724A6001684A686A
:1008400083681A434A6001688A6822F400628A60F9
:1008500001688A68C3681A438A60816A6FF07062AF
:10086000D14201688A6822F070628A6001688A68F1
:100870000CD0836A1A438A6001688A6822F0405269
:100880008A6001688A68C36A1A4301E022F0405214
:100890008A6001688A6822F002028A6001688A68B8
:1008A000037E42EA43028A6090F820100029016822
:1008B0004A680FD042F400624A6001684A6822F434
:1008C00060424A6001684A68174C436A04EB43334C
:1008D0001A4301E022F400624A600168CA6A22F405
:1008E0007002CA620168CA6A838B104C04EB03531E
:1008F0001A43CA6201688A6822F400728A60016839
:100900008A6890F8303042EA43228A6001688A6837
:1009100022F480628A6001688A68406942EA802025
:10092000886010BD0023014000E0FFFF0000F0FFE1
:10093000FEE7704772B6FEE778B50024009490F8A1
:100940003C20012A19D0012280F83C200A680723A4
:100950000568092A13D9EE680A3A02EB420293406D
:100960009E43EE600B788A680A3B03EB43039A4090
:100970000368DD682A43DA6010E0022078BD2E6942
:1009800002EB420293409E432E610B788A6803EB90
:1009900043039A4003681D692A431A614A681F236A
:1009A000072A13D205686E6B521E02EB8202934037
:1009B0009E436E630B790A885B1E92B203EB83033E
:1009C0009A4003685D6B2A435A6327E005680D2A45
:1009D00012D22E6BD21F02EB820293409E432E63F3
:1009E0000B790A88DB1F92B203EB83039A400368FA
:1009F0001D6B2A431A6311E0EE6A0D3A02EB820284
:100A000093409E43EE620B790A880D3B92B203EB52
:100A100083039A400368DD6A2A43DA62164B05684D
:100A2000144A9D4206D10D68122D03D1556845F434
:100A30008005556005689D4218D10B68102B01D0C8
:100A4000112B13D1536843F4000353600968102934
:100A50000CD10A490A4A0968B1FBF2F101EB8101A4
:100A6000490000E0491E00910029FBD180F83C407C
:100A7000002078BD00230140002001400C00002030
:100A800040420F000068C06C704770B504004FF022
:100A9000000503D0206C002610B107E0012070BDD6
:100AA000204600F01DF8666484F83C60206CC006A7
:100AB00010D4206C20F4885040F0020020642046BE
:100AC000FFF7A2FE6664206C20F0020040F00100F7
:100AD000206400E0012584F83C60284670BD0000D9
:100AE00010B586B0044614216846FFF7A1FB1149F2
:100AF000206888421CD110480021026842F48072AC
:100B00000260006800F4807005900B481438026899
:100B100042F004020260006800F00400059010201A
:100B200000900320CDE901016946044800F04AF92C
:100B300006B010BD002001404438024000080240C9
:100B40002DE9F041044600680D4681684FF000072A
:100B500049050BD58068C00508D5206C40F0200001
:100B6000206484F83C700120BDE8F08100F022FA96
:100B7000064613E0681C11D025B100F01BFA801B5B
:100B8000A8420BD920680068800707D4206C40F089
:100B90000400206484F83C700320E5E720680068C6
:100BA0008007E7D521686FF012000860206C40F4E0
:100BB000007020642068816811F0405F13D1217EAD
:100BC00089B9C16A11F4700F02D0806840050AD457
:100BD000206C20F480702064206CC00403D4206C4E
:100BE00040F0010020640020BEE7000018B500219D
:100BF000009190F83C20012A07D0012280F83C2087
:100C000002689368DB0702D011E0022018BD9368E8
:100C100043F0010393602E4A2E4B1268B2FBF3F2AD
:100C200002EB420200E0521E0092002AFBD1026851
:100C30009368DB0742D0036C40F20164A34343F4A2
:100C40008073036453685B0505D5036C23F400537C
:100C500043F480530364036CDB0404D5436C23F03A
:100C60000603436400E0416480F83C101A496FF0C9
:100C70002203136049680068CA06184906D08842F2
:100C800024D1816811F0405F13D01FE08842F8D072
:100C9000134A904203D1D1F80423D206F1D0114A6D
:100CA000904213D1D1F8041301F01F011029E8D3A9
:100CB0000CE0816841F08041816007E0016C41F007
:100CC00010010164416C41F001014164002018BD34
:100CD0000C00002040420F00002301400020014092
:100CE00000210140002201402DE9F0410446876DBA
:100CF00000F060F9064694F835000025022806D079
:100D00008020606584F834500120BDE8F0812068BF
:100D1000016821F0160101602068416921F080011D
:100D20004161206C08B9A06C20B12068016821F0F5
:100D3000080101602068016821F0010101600CE0F8
:100D400000F038F9801B052807D9202060650320B2
:100D500084F8350084F83450D7E720680068C0076D
:100D6000EED194F85C103F208840B860012084F8F0
:100D7000350084F834500020C7E790F83510022978
:100D800003D08021416501207047052180F835108E
:100D90000068016821F00101016000207047000037
:100DA00070B5044600F006F90546601C02D0044800
:100DB0000078044400F0FEF8401BA042FAD370BD56
:100DC000000000202DE9F84FDFF8BCA1002201252A
:100DD00003264FF00F090AF1040BAAF1040E00BF1D
:100DE0000B6805FA02F42340A34270D10F7907F093
:100DF0000307012F01D0022F16D187684FEA42085E
:100E000006FA08FC27EA0C07D1F80CC00CFA08FC1B
:100E10004CEA070CC0F808C04768A7430C79C4F334
:100E2000001494403C4344600C79E443A4070AD086
:100E3000C4684FEA420C06FA0CF7BC438F6807FA05
:100E40000CF72743C7600C7904F00304022C12D17D
:100E5000D40800EB840CDCF820405707FF0E09FA99
:100E600007F824EA0804D1F8108008FA07F848EADD
:100E70000408CCF8208004684FEA420C06FA0CF70C
:100E8000BC430F7907F0030707FA0CF72743076005
:100E90004C6814F4403F70D03C4C276847F48047BE
:100EA0002760246822F0030704F480440094384C3F
:100EB00007EB040CDCF8084897074FEA177809FAA3
:100EC00008F7BC43334FB84202D1002724E054E076
:100ED000314FB84201D101271EE0304FB84201D155
:100EE000022719E02E4FB84201D1032714E02D4FFD
:100EF000B84201D104270FE02B4FB84201D105279A
:100F00000AE02A4FB84201D1062705E0284FB8422F
:100F100001D1072700E0082707FA08F72743CCF894
:100F20000878DAF800405746D1F804C09C435FEADD
:100F3000CC2C00D51C433C60DBF800405F46D1F868
:100F400004C09C435FEA8C2C00D51C433C60DEF857
:100F500000407746D1F804C09C435FEA8C3C00D542
:100F60001C433C60084F083F3C68D1F804C09C43D8
:100F70005FEACC3C00D51C433C60521C102AFFF4B5
:100F80002FAFBDE8F88F0000083C01404438024014
:100F9000003001400000024000040240000802400E
:100FA000000C0240001002400014024000180240F1
:100FB000001C0240014880687047000000000020CB
:100FC0000248816802781144816070470000002067
:100FD0000B4810B5016841F400710160016841F4EB
:100FE00080610160016841F480710160032000F0BC
:100FF0006FF80F2000F006F800F024F8002010BD74
:10100000003C024070B50D4D04464FF47A712878CB
:10101000B1FBF0F00A490968B1FBF0F000F00CFBFD
:1010200048B9102C07D200222146501E00F030F89B
:1010300000206C6070BD012070BD00000000002029
:101040000C0000200A4808B5016841F480410160A5
:10105000006800F4804000900548001F016841F0DE
:1010600080510160006800F08050009008BD0000D1
:1010700044380240002809DB00F01F0201219140A2
:101080004009800000F1E020C0F800117047000026
:10109000F0B40E4B1B680C46C3F30223C3F10705E3
:1010A000042D00D90425191D072901D2002300E0D1
:1010B000DB1E012606FA05F1491E214099409E409B
:1010C000761E16403143F0BC00F0F8BE0CED00E097
:1010D000064900F0070208684FF6FF03184040EA8F
:1010E0000220034A10430860704700000CED00E046
:1010F0000000FA052DE9F0470E46050065D0DFF83F
:101100001481D8F80000F7B200F00700B04207D20F
:1011100088F80070D8F8000000F00700B04254D101
:1011200028683D4C810712D5400703D5206840F45C
:10113000E05020602878000703D5206840F4604024
:1011400020602068A96820F0F0000843206028781B
:10115000C0072DD0304968680839012812D002280C
:1011600013D0032811D00968890700292DDA2168D6
:1011700021F0030101432160FFF71CFF814641F28A
:10118000883A0EE009688903EFE709688901ECE70E
:10119000FFF710FFA0EB0901514502D90320BDE87C
:1011A000F0872068696800F00C00B0EB810FEFD188
:1011B000D8F80010404601F00701B14207D9077086
:1011C000006800F00700B04201D00120E7E728786E
:1011D000400705D52068E96820F4E0500843206006
:1011E0002878000706D52068296920F4604040EA85
:1011F000C100206000F038F82168084AC1F30311EB
:10120000515CC8400649086006480068FFF7FAFECE
:101210000020C4E7003C02400838024020290008B2
:101220000C000020040000200448054900680968FB
:10123000044AC1F38221515CC84070470C00002071
:101240000838024030290008044805490068096848
:10125000044AC1F34231515CC84070470C00002081
:101260000838024030290008154810B5006810F011
:101270000C02144813D01449042A0FD0082A0ED1A6
:101280000F4C241F2268236802F03F025B0207D53F
:101290002068C0F38810A0FB010106E0084610BDDD
:1012A0002168C1F38811A1FB00010023FEF788FF2C
:1012B0002168C1F30141491C4900B0FBF1F010BDA8
:1012C000083802400024F40040787D012DE9F84FF1
:1012D00004006ED02078DFF84C93C007A9F1040514
:1012E0004AD009F104000168C1F38101012908D045
:1012F0000068C0F3810002280AD1D9F8000040023A
:1013000006D52868800337D560680028E1D033E02F
:101310006068B0F5803F10D0B0F5A02F286810D0DD
:1013200020F480302860286820F4802028606068DD
:10133000A8B1FFF73FFE06460DE0286840F4803074
:10134000F4E740F480202860F7E700BFFFF732FEA3
:10135000801B642873D828688003F7D50CE0FFF75A
:1013600029FE064605E000BFFFF724FE801B642827
:10137000F0D828688003F7D42078DFF8AC828007A3
:101380004FF0000A3ED5A748001D016811F00C0F70
:1013900008D00068C0F3810002280BD1D9F8000002
:1013A000400207D42868800716D5E068012800D1DC
:1013B00012E033E1E068B8B10120C8F80000FFF79F
:1013C000F9FD064605E000BFFFF7F4FD801B02288B
:1013D000C0D828688007F7D52868216920F0F80070
:1013E00040EAC10028600DE0C8F800A0FFF7E2FD68
:1013F000064604E0FFF7DEFD801B02281FD82868A0
:101400008007F7D42078000722D5864F8748616986
:10141000703771B101210160FFF7CCFD064604E091
:10142000FFF7C8FD801B022809D838688007F7D568
:101430000EE0C0F800A0FFF7BDFD064605E082E023
:10144000FFF7B8FD801B02287DD838688007F7D4E5
:101450002078400768D5DFF8CCB100270BF13C0BB2
:10146000DBF80000C0000BD4DBF8001041F0805125
:10147000CBF80010DBF80000012700F0805000904E
:101480006B4E3068C00510D4306840F48070306016
:10149000FFF790FD009005E0FFF78CFD0099401AE2
:1014A000022850D83068C005F6D55E4EA0686C366C
:1014B00001280FD00528306810D020F001003060DE
:1014C000306820F004003060A068B8B1FFF772FD0A
:1014D00000900FE0306840F00100F4E740F00400B5
:1014E0003060F7E7FFF766FD0099411A41F2883056
:1014F000814266D830688007F4D50EE0FFF75AFDC8
:10150000009007E0FFF756FD0099411A41F288303C
:10151000814256D830688007F4D42FB1DBF8001030
:1015200021F08051CBF80010A069C8B33D49091DD6
:101530000968C1F3810102294AD00228504607D028
:10154000C8F8600000E03CE0FFF734FD04463BE0F3
:101550004746C8F86000FFF72DFD064605E000BFCE
:10156000FFF728FD801B02282BD828688001F7D4BC
:10157000D4E907010843A16A2E4A490802EB014158
:10158000626A41EA8211084394F82C1040EA016132
:10159000C9F8001001203866FFF70CFD044606E08C
:1015A0003EE000BFFFF706FD001B022809D82868AF
:1015B0008001F7D534E000BFFFF7FCFC001B0228D8
:1015C00002D90320BDE8F88F28688001F4D427E011
:1015D0000128F7D0D9F80000E26900F480019142B7
:1015E0001CD1226A00F03F01914217D147F6C07129
:1015F000626A0140B1EB821F10D1A26A4FF0FF3343
:1016000000F4403103EB5202B1EB024F06D194F8E3
:101610002C1000F07060B0EB016F01D00120D1E719
:101620000020CFE70438024000004742800E4742C6
:10163000007000400000FFFF10B5401EB0F1807F39
:1016400001D3012010BD4FF0E02460610F2160172D
:1016500000F034FC0020A06107202061002010BDB4
:1016600070477047F8B5016804460868CA684B6956
:1016700010F00F0F4FF0000559D003F0010602F4EF
:101680009077374365D0C10705D0D10503D5616C8C
:1016900041F001016164410705D5D90703D0616CB0
:1016A00041F002016164810705D5D90703D0616C5F
:1016B00041F004016164010707D502F020013143C4
:1016C00003D0616C41F008016164616C00293AD07B
:1016D000800604D5900602D5204600F0B6FA2068B0
:1016E0004069616CC0F38010090700D460B32046E4
:1016F00000F084FA20684069400621D52068143043
:1017000050E8001F21F0400140E80012002AF5D106
:10171000E06BA8B16E490165E06BFFF72EFB002876
:1017200011D0E06B016D01B0BDE8F04008478306C1
:101730000FD593060DD52046BDE8F84000F085BAD8
:101740002046FFF78EFFF8BD2046FFF78AFF65644D
:10175000F8BD266B2023012E7DD1C6067BD5D6068B
:1017600079D508684868009048694FF0020640063D
:1017700041D5E16B086840680004000CE8D0A28DF8
:101780008242E5D9E085C869B0F5807F2DD0206818
:101790000C3050E8001F21F4807140E80012002A4C
:1017A000F5D12068143050E8001F21F0010140E815
:1017B0000012002AF5D12068143050E8001F21F0F3
:1017C000400140E80012002AF5D184F84230256338
:1017D00020680C3050E8001F21F0100140E8001292
:1017E000002AF5D1E06BFFF77FFA6663A08DE18DEB
:1017F000401A81B22AE0A08DE18D401A81B2E08DBD
:101800000028A5D00029A3D022680C3252E8000F8E
:1018100020F4907042E80007002FF5D120681430C2
:1018200050E8002F22F0010240E80027002FF5D1F8
:1018300084F84230256320680C3050E8002F22F0F5
:10184000100240E80023002BF5D166632046FFF725
:1018500007FFF8BDFFE705062BD5150629D594F837
:1018600041002128F5D1A068B0F5805F01D1206941
:10187000B0B1206A411C2162216800784860E08C88
:10188000401E0004000CE084E3D12068C16821F010
:101890008001C1602068C16841F04001C160D8E7A3
:1018A000206A0088C0F308004860206A801C20621B
:1018B000E5E74006CDD55006CBD5CA68204622F0D4
:1018C0004002CA6084F8413000F0C5F8C1E700006A
:1018D000ED1B000870B5040004D094F84100002509
:1018E00010B106E0012070BD84F84050204600F0A1
:1018F00023F8242084F841002068C16821F40051B5
:10190000C160204600F002FA2068016921F490418C
:1019100001612068416921F02A0141612068C168A4
:1019200041F40051C1606564202084F8410084F8CE
:1019300042006563002070BD10B586B004461421D6
:101940006846FEF775FC18492068884229D1174877
:101950000021026842F010020260006800F01000EE
:10196000059012481438026842F0010202600068D3
:1019700000F0010005904FF4C06000900220CDE916
:101980000101032003900720049069460848FFF7EF
:1019900019FA002211462520FFF77AFB2520FFF7D0
:1019A00069FB06B010BD0000001001404438024041
:1019B0000000024070472DE9F843044690F84100CA
:1019C000984616460D46202802D00220BDE8F8832E
:1019D00085B17EB100206064212084F84100FFF7CA
:1019E000E9FAA6848146E684A0682027B0F5805FE6
:1019F00002D003E00120E9E7206910B12E4600255E
:101A00000EE000260CE08021204600F005FAA8B97F
:101A1000C6B116F8010B21684860E08C401EE084D6
:101A2000E08C4B464FF00002CDF800800028EAD150
:101A30004FF04001204600F0EFF940B184F84170CA
:101A40000320C3E735F8020BC0F30800E3E784F88E
:101A500041700020BAE77047FEE700007FB5002123
:101A60001B48009101910291184A039102600124E0
:101A70004FF480320461C0E90121017680F8201022
:101A8000144AC0E90A210225C561C16080F83010FE
:101A90004461FEF7FAFF08B1FEF74CFF1020CDE9D4
:101AA00000040520029069460948FEF745FF08B189
:101AB000FEF740FF0E20CDE9000569460448FEF719
:101AC0003BFF002801D0FEF735FF7FBD002001401D
:101AD000140000200100000F094808B5016841F01A
:101AE00004010160016801F004010091016841F006
:101AF00001010160006800F00100009008BD0000D5
:101B0000303802400C4810B50A4901604FF4E13109
:101B10004160002181600C22C160C0E90412816132
:101B2000C161FFF7D7FE002803D0BDE81040FEF7E3
:101B300001BF10BD001001405C000020FEE7FEE781
:101B400070477047FFF73CBA30B593B03021684614
:101B5000FEF76EFB14210CA8FEF76AFB1D4800255A
:101B6000016841F080510160006800F080501190E0
:101B70001948016841F4804101600068022400F4C2
:101B8000804011900120039010200490009406944E
:101B90000820CDE90750A820CDE9090404200B90C6
:101BA0006846FFF793FB08B172B6FEE70CA90F2059
:101BB00081E831004FF4A0500F904FF48050109006
:101BC00005210CA8FFF796FA002801D072B6FEE7AF
:101BD00013B030BD40380240007000400248016838
:101BE00041F470010160704788ED00E010B5806B32
:101BF0000021C185C184FFF734FD10BD01680C319F
:101C000051E8002F22F4907241E80023002BF5D117
:101C10000168143151E8002F22F0010241E800234D
:101C2000002BF5D1016B012909D101680C3151E874
:101C3000002F22F0100241E80023002BF5D12021D3
:101C400080F8421000210163704708B590F84210F7
:101C5000222901D0022008BD82684FF480539A42A5
:101C600001D1016921B1816A9A421BD04AB10AE0CF
:101C70000268816A5268C2F308020A80816A891C7C
:101C800008E0026972B10268526802F07F020A70CD
:101C9000816A491C8162C18D491E0904090CC185F4
:101CA00003D01BE002685268F1E70168CA6822F0BD
:101CB0002002CA600168CA6822F48072CA600168A2
:101CC0004A6922F001024A61202180F84210002175
:101CD0004163026B012A03D0FFF76CFE002008BDB0
:101CE000016301680C3151E8002F22F0100241E835
:101CF0000023002BF5D101680A68D20602D50A68D4
:101D000049680091818DFFF7ABFCE7E770B50446A9
:101D100000680169E26821F44051114301612169C1
:101D2000A068E26908436169114308432168CA68F1
:101D300049F20C639A430243CA6020684169A26970
:101D400021F440711143416131492068884202D039
:101D50003049884202D1FFF777FA01E0FFF764FAD1
:101D6000E2690023192164253226B2F5004F62682A
:101D700028D0A0FB0101930F9200FEF721FA014643
:101D8000B0FBF5F06FF01802504301EB800006EB5A
:101D90000010B0FBF5F000F0F002B1FBF5F002EB43
:101DA0000012B1FBF5F06FF01803584301EB80000F
:101DB00006EB0010B0FBF5F000F00F0021681044B6
:101DC000886070BDA0FB010192185B41FEF7F8F935
:101DD0000146B0FBF5F00201B1FBF5F06FF018031E
:101DE000584301EB800006EBC000B0FBF5F000F0BB
:101DF000F80002EB4002B1FBF5F0584301EB800024
:101E000006EBC000B0FBF5F000F00700D6E70000DD
:101E100000100140001401402DE9F8439846174690
:101E20000D460446089E24E0701C22D0FFF7C2F83D
:101E3000A0EB0800B0421AD8CEB12068C1684907AB
:101E400017D5802D15D0402D13D00168C94309073F
:101E50000FD401680025406800902046FFF7CEFEB1
:101E60000820606484F840500120BDE8F883032016
:101E7000FBE72068006835EA000004D00020B84283
:101E8000D2D00020F1E70120F9E700000148FFF778
:101E9000E9BB00005C000020FEE700000FB4054B2A
:101EA00010B503A9044A029800F0EAF810BC5DF8E6
:101EB00014FB0000B1270008100000200907090EDC
:101EC000002804DB00F1E02080F80014704700F0E7
:101ED0000F0000F1E02080F8141D704702E008C8F0
:101EE000121F08C1002AFAD170477047002001E094
:101EF00001C1121F002AFBD1704700002DE9FF5FCE
:101F000082B00021DDE90430020DDDF840B003436A
:101F100018D044F61050A2F2FF3242431514119823
:101F200001281FD0A5EB0B00401C5FEA000A4FF010
:101F300000064E4FDFF83891B046504615D5CAF12D
:101F4000000413E0119801244AA3012801D16FEA8B
:101F50000B010298119AC0E90031C0E9024206B0B3
:101F6000BDE8F09FCBF10000DFE704460021404AC6
:101F7000491842EB0450CDE9001012E0E00707D009
:101F800032463B4640464946FEF75DF98046894663
:101F900032463B4610461946FEF755F906460F46AF
:101FA0006410002CEAD1DDE90401DDE90023BAF177
:101FB000000F06DAFEF747F942464B46FEF743F9B3
:101FC00005E0FEF7B2F942464B46FEF7AEF904468D
:101FD0000E460022284BFEF7DBFB03D84FF0FF3004
:101FE000014607E00022254B20463146FEF711FB53
:101FF000FEF7B6FB102409E0002C0ADB0A220023BE
:10200000FEF7DEF8039B30321A55641E50EA0102D7
:10201000F2D1641C039AC4F111031444119A012AE9
:1020200003D0012208430DD10AE0084304D0002068
:102030004FF0110B119072E7A3EB0B056D1E0DE035
:102040005B4504DD4FF0000205F1010504E003DA11
:102050004FF00002A5F10105002AECD00298119979
:10206000C0E90231C0E9004579E7000000001440F2
:102070000000F03F300000000000F0430000E03FAF
:102080002DE9FF4F95B09B468946064600250FE295
:10209000252877D100242746F84A0121059400E03D
:1020A000044316F8013F203B01FA03F01042F7D138
:1020B00030782A2811D06FF02F033078A0F1300249
:1020C000092A16D8059A44F0020402EB820203EBB7
:1020D00042021044761C0590EFE759F8042B059254
:1020E000002A03DA504244F40054059044F00204FC
:1020F000761C30782E2816D116F8010F44F004040F
:102100002A280DD06FF02F023078A0F13003092B70
:1021100009D807EB870302EB4303C718761CF3E7E4
:1021200059F8047B761C30786C280FD006DC4C28DC
:1021300017D068280DD06A2814D104E0742810D074
:102140007A280FD10DE044F400140AE044F480141E
:1021500001E044F440147278824202D104F5801404
:10216000761C761C307866280BD013DC582877D084
:1021700009DC002875D04528F6D04628F4D0472839
:102180001AD19DE118E0632835D0642879D06528FC
:1021900012D195E1702873D008DC6728F1D0692846
:1021A0006FD06E280DD06F2806D1B5E073282CD0E3
:1021B000752875D0782874D05A46179990476D1CA9
:1021C00075E1C4F30250022809D003280DD0D9F8D4
:1021D000001004280DD00D6009F1040967E1D9F859
:1021E0000010EA17C1E90052F6E7D9F800100D8097
:1021F000F2E70D70F0E719F8041B8DF800100020CD
:102200008DF80100EA46012003E059F804AB4FF0D5
:10221000FF3061074FF0000102D40DE008F1010129
:102220008846B9420FDA8045F8DB1AF80810002911
:10223000F4D108E008F1010188468142FADB1AF87E
:1022400008100029F6D105985B46A0EB0807214647
:102250003846179A00F094FA284400EB080507E086
:102260004DE029E10DE01AF8010B5A461799904705
:10227000B8F10108F7D25B4621463846179A13E1B8
:1022800042E00A220092C4F302524FF0000A022AEE
:1022900008D059F804CB032A4FEAEC710AD00DE0BC
:1022A00029E02AE009F1070121F00702F2E802C162
:1022B000914609E00FFA8CFC4FEAEC71042A03D135
:1022C0004FFA8CFC4FEAEC71002907DA0A4600212C
:1022D000DCF1000C61EB02012D2202E0220504D5A5
:1022E0002B228DF80420012203E0E20701D02022F6
:1022F000F7E7904659E00A2102E010220DE0102194
:102300004FF0000A00910BE010224FF0000A44F059
:1023100004040827009203E008224FF0000A00920C
:10232000C4F30252022A05D059F804CB0021032A33
:1023300008D009E009F1070121F00702F2E802C123
:10234000914605E01FFA8CFC042A01D10CF0FF0C29
:102350004FF00008220728D5702806D0009B83F094
:10236000100353EA0A0305D00EE040228DF8042042
:10237000012208E05CEA010206D030228DF8042038
:102380008DF8050002229046009B83F0080353EA73
:102390000A030AD15CEA010201D1620705D53022A5
:1023A0008DF804204FF001087F1E582804D034A077
:1023B00003900EA802900DE036A0F9E75346604660
:1023C000009AFDF7FDFE84460398825C0298401E49
:1023D000029002705CEA0100F0D1029806A9081A86
:1023E00000F1200A600702D524F4803400E00127C0
:1023F000574502DDA7EB0A0000E0002000EB0A01D0
:10240000009005984144401A0590E00306D45B46CD
:102410002146179A059800F0B3F90544002706E015
:1024200001A85A46C05D179990476D1C7F1C47450F
:10243000F6DBE0030CD55B462146179A059800F0C1
:102440009FF9054404E030205A46179990476D1CC7
:102450000099481E00900029F5DC08E002980299D6
:102460005A460078491C0291179990476D1CBAF1A1
:102470000001AAF1010AF1DC65E100000928010070
:1024800030313233343536373839616263646566EA
:1024900000000000303132333435363738394142AC
:1024A000434445460000000000F058F90544761CFE
:1024B000307800287FF4ECAD19B02846BDE8F08FE5
:1024C000620700D4062709F1070222F0070CFCE896
:1024D0000223E14603F000485FEA080C02D00FF245
:1024E000702C0DE05FEA045C02D50FF2682C07E067
:1024F0005FEAC47C02D00FF2602C01E0AFF2700CF6
:102500004FF0FF3823F00043CDF850C065280CD0C1
:1025100006DC452809D046281DD047283DD13DE09E
:10252000662818D067287ED138E00021112F01DB02
:10253000112000E0781CCDE9000106A90EA8FFF7E4
:10254000DDFCDDE90F010E9A03910021009207F1F5
:10255000010A04914DE04FF000400097CDE90110D1
:1025600006A90EA8FFF7CAFCDDE90F0203920E9B35
:1025700011990022DDF80CA00093049211B9791C86
:1025800000EB010AB7EB0A0004D4C0F1FF3007F1F9
:10259000010A0490AAEB0700019044E0012F00DA41
:1025A00001270021112F01DD112000E03846CDE97F
:1025B000000106A90EA8FFF7A1FCDDE90F010E9AA4
:1025C0000391002104910092BA4621070CD403998B
:1025D000514500DA8A46BAF1010F05DD009AAAF1E9
:1025E0000101515C302908D0B84202DA10F1040F21
:1025F00006DA0121CDE9011015E0AAF10101E9E7B0
:10260000002805DC049901440491AAEB000102E0D2
:10261000411C514500DD8A460499401A401C019036
:102620004FF000400290200704D40198504501DB90
:10263000CDF8048000208DF84F0002980DF14F076F
:10264000B0F1004F25D02B200E9002984FF00208D9
:1026500000280CDA404202902D200E9007E00A215B
:102660000298FDF70DFF3031029007F8011DB8F117
:102670000001A8F10108F2DC02980028EFD1791ED0
:102680000E980870307800F0200040F0450007F800
:10269000020D12A8C01B00F107081498007800B1C1
:1026A000012000EB0A01019801EBE071059841441B
:1026B000401A401E0590E00306D45B462146179A57
:1026C000059800F05DF805441498007818B15A4652
:1026D000179990476D1CE00324D55B462146179A55
:1026E000059800F04DF805441CE00498002807DB2D
:1026F000DDE90301884203DD0098405C179901E0A1
:10270000179930205A469047049805F10105401C5E
:1027100004900198401E019004D12E205A4617992A
:1027200090476D1CBAF10001AAF1010ADDDC05E059
:1027300017F8010B5A46179990476D1CB8F1000124
:10274000A8F10108F4DC5B462146179A0598ABE630
:102750002D0000002B000000200000002DE9F041BA
:10276000044600251E461746880404D405E0394671
:102770002020B0476D1C641EF9D52846BDE8F081C5
:102780002DE9F041044600251E469046C80301D5B8
:10279000302700E02027880404D505E0414638466C
:1027A000B0476D1C641EF9D52846BDE8F0810000D5
:1027B00013B54FF6FF73012269460248FFF7FBF895
:1027C00000981CBD5C0000202DED048BFEF700FC82
:1027D000FFF7BAF9FFF780F9FFF740F9FFF792F931
:1027E00037A0FFF75BFB9FED3A8B9FED3B9B4FF0D4
:1027F000FF363B48FEF7FAF9344621463848FEF7E3
:102800009FF90028F9D13648FEF73CF985B22846F1
:10281000FDF7FAFD53EC182BFDF715FD53EC192BC2
:10282000FDF783FDFDF710FE00EE100ADFED2D0A27
:102830009FED2E1A30EEC00ADFED2B0A60EE200A63
:1028400080EE810AF3EE090A30EE200A10EE100A3B
:10285000FDF7E7FD41EC100B294653EC102B24A0AB
:10286000FFF71CFB21461E48FEF76AF90028F9D144
:102870001B48FEF707F984B22046FDF7C5FDB0EE10
:10288000481AF0EE681A53EC112BFDF7DCFCB0EEA1
:10289000491AF0EE691A53EC112BFDF746FDFDF7CE
:1028A000D3FDFDF7BEFD41EC100B214653EC102B80
:1028B00015A0FFF7F3FAC820FEF772FA99E70000B7
:1028C000496E697420436F6D706C657465210A00F0
:1028D0006666666666660A400000000000FEAF405D
:1028E000140000209A99B93F00007A4433338340A2
:1028F00074656D703A202564092025352E326620D6
:10290000A1E60D0A00000000566F6C746167653A1D
:10291000202564092025352E326620560D0A000038
:10292000000000000000000001020304060708097F
:1029300000000000010203045829000800000020E4
:1029400014000000DC1E00086C29000814000020A0
:1029500094040000EC1E00080100000010000000BC
:0C296000000000000024F4000000000053
:040000050800018965
:00000001FF
