:020000040800F2
:10000000B00400209D010008691B0008B11300081E
:10001000651B0008BD020008DD1E0008000000008E
:10002000000000000000000000000000291D000882
:10003000C102000800000000251D00082D1D000859
:10004000B7010008B7010008B7010008B7010008B0
:10005000B7010008B7010008B7010008B7010008A0
:10006000B7010008B7010008B7010008B701000890
:10007000B7010008B7010008B7010008B701000880
:10008000B7010008B7010008B7010008B701000870
:10009000B7010008B7010008B7010008B701000860
:1000A000B7010008B7010008B7010008B701000850
:1000B000B7010008B7010008B7010008B701000840
:1000C000B7010008B7010008B7010008B701000830
:1000D000B7010008B7010008B7010008B701000820
:1000E000B7010008B7010008B7010008B701000810
:1000F000B7010008B7010008B7010008B701000800
:10010000B7010008B7010008B7010008B7010008EF
:10011000B7010008B7010008B7010008B7010008DF
:10012000B7010008B7010008B7010008B7010008CF
:10013000B7010008B7010008B7010008B7010008BF
:10014000B7010008B7010008B7010008B7010008AF
:10015000B7010008B7010008B7010008B70100089F
:10016000B7010008B7010008B7010008B70100088F
:10017000B7010008B7010008B7010008000000003F
:10018000B7010008B7010008DFF80CD000F07EF8D6
:1001900000480047011F0008B004002006488047BF
:1001A00006480047FEE7FEE7FEE7FEE7FEE7FEE75C
:1001B000FEE7FEE7FEE7FEE7D91D0008890100081B
:1001C0002DE9F05F0546002092469B46884606468C
:1001D000814640241BE0284641464746224600F01F
:1001E00045F853465A46C01A914110D31146184655
:1001F000224600F02CF82D1A67EB01084F462246E4
:100200000120002100F023F817EB00094E41201EC9
:10021000A4F10104DFDC484631462A464346BDE8E6
:10022000F09F30B50B46014600202022012409E052
:1002300021FA02F59D4205D303FA02F5491B04FA9F
:1002400002F52844151EA2F10102F1DC30BD202A7E
:1002500004DB203A00FA02F1002070479140C2F11D
:10026000200320FA03F3194390407047202A04DB4F
:10027000203A21FA02F00021704721FA02F3D0401F
:10028000C2F1200291400843194670471CB5094845
:100290000090094801900546009C06E0E06840F0A7
:1002A000010394E8070098471034AC42F6D3FFF7F7
:1002B0006FFF00004023000860230008FEE70000F5
:1002C0007047000072B600BFFEE70000B0B50446FC
:1002D00000F0E0F8054640F20400C2F200000078A9
:1002E000611C18BF044400BF00F0D4F8401BA042BA
:1002F000FAD3B0BD2DE9F04F82B000F13E4707F1CF
:10030000FF77860546EA972741F60046C4F20206C3
:10031000082243F6004EB04208BF0722C4F2010E85
:10032000072F38BF3A46002600274FF000080092FA
:1003300009E000BF08F101080237B8F1100F06F11B
:10034000040600F0A3800D68012202FA08F415EA01
:100350000409EFD0D1F804B003220BF0030CACF188
:100360000105BA40012D6FEA020A0FD88268CD68F4
:1003700002EA0A02BD402A4382604268A243CBF3EC
:10038000001404FA08F42243426005E0BCF1030FB4
:1003900002D14FF0030C1EE0C2688C6802EA0A0228
:1003A000BC402243BCF1020FC26014D16FF00302C3
:1003B00002EA58020244D2F820C006F01C040F23BF
:1003C0000D69A3402CEA0303A5402B431362D1F827
:1003D00004B00BF0030C02680CFA07F302EA0A02FD
:1003E0001A431BF4403F0260A4D0002243F64403AA
:1003F0000192C4F202031A684FF6084C42F480429C
:100400001A601A68CFF6FF7C02F480420192019ACA
:1004100028F00302724452F80C3006F00C050F2449
:10042000AC40A343009C04FA05F52B4342F80C3082
:10043000DEF808204B6842EA090543F60C4CDC0262
:1004400058BF22EA0905CEF80850C4F2010CDCF8C6
:1004500000209C0242EA090558BF22EA0905CCF8AF
:100460000050DEF804209C0342EA090558BF22EA46
:100470000905CEF80450DEF80020DB0342EA090546
:1004800058BF22EA0905CEF8005053E702B0BDE894
:10049000F08F000040F2AC00C2F20000006870472C
:1004A000002804BF01207047F0B581B0044690F8E1
:1004B0003D0028B9002084F83C00204600F07CFA7A
:1004C000242084F83D002068016821F001010160CA
:1004D000016841F400410160016821F400410160BC
:1004E00000F0F8FB636848F2A16CC0F2010C40F622
:1004F0000011C0F23D0163453CBF48F28041C0F2AB
:100500001E01884202D2012001B0F0BD4DF6836188
:10051000C4F21B31A0FB01122168970CD1F804E052
:100520004FF496762EF03F0545EA92454D607743AD
:1005300048F638160D6AC0F24106A7FB067625F08C
:100540003F07634538BF960C721C3A430A62CA697A
:1005500048F2A0664CF6FF77C0F20106B34222EAE9
:1005600007020BD801385B00B0FBF3F001306FF3EA
:100570001F30042898BF04201BE000BFA768013883
:1005800057B119277B43B0FBF3F001306FF31F30F5
:1005900070B100F5804007E003EB4303B0FBF3F0DC
:1005A00001306FF31F3018B100F5004001E000BFCB
:1005B00001201043C8610868D4E9072320F0C00077
:1005C000104318430860886848F2FF3204F10C07B2
:1005D00090438CCF18431043A6698860C86820F008
:1005E000FF0038433043C860086840F001000860ED
:1005F00000202021206484F83D10206384F83E0010
:1006000001B0F0BD2DE9F04784B0994616460F467B
:100610000446FFF73FFF94F83D10202927D10546F7
:10062000206800BF816989071CD5FFF733FF411B94
:1006300020681A29F6D381698907F3D50020202183
:10064000206384F83D1084F83E00206C04F13C0ADD
:1006500040F020002064022000218AF8001004B03D
:10066000BDE8F087A2461AF83C1F012904D10220F8
:1006700004B0BDE8F08700BF01228AF800200368BB
:10068000DDE90D180C9ADB0703D1036843F0010381
:100690000360036823F400630360222084F83D00B4
:1006A000402084F83E000020206462626185608DF5
:1006B000394620850020CFF6FF70E06220463246A2
:1006C0004B46CDE9008500F075FE18B1012004B05D
:1006D000BDE8F087208DA8B102282BD0012835D1A4
:1006E00021680A6822F480620A60002203924A6943
:1006F00003928A690392039A0A6842F400720A60BC
:100700002CE000BF002003902068416903918169BB
:1007100003910399016841F400710160202084F87D
:100720003D00002084F83E0000218AF8001004B04B
:10073000BDE8F08721680A6822F480620A600A68CE
:1007400042F400620A600022039202E00021039159
:1007500021684A6903928969039103990427C0F2C9
:1007600001070CE010690870606A218D0130606239
:10077000481E2085618D013961850104CED080B28B
:1007800003280FD802284AD001282DD120464146FF
:100790002A4601F0ADF8002898D12068616A006906
:1007A000E1E700BF204641462A4601F0A1F80028B3
:1007B0007FF48CAF2068616A00690870606A226803
:1007C000411C208D616201382085638D013B63856A
:1007D00053695B07D1D580B20328C3D1106820F4D8
:1007E00080601060BEE700BF2046394600224346C5
:1007F000009500F02BFF00287FF468AF2068616A45
:10080000026822F48062026000690870606A218DCB
:1008100001306062481E2085608D01386085204669
:10082000394600224346009500F010FF00287FF46F
:100830004DAF2068616A026842F40072026000698C
:100840000870606A2268411C6162218D013921852E
:10085000618D013961851169417085E72DE9F043AA
:1008600083B0994616460F460446FFF713FE94F8E8
:100870003D10202924D10546206800BF81698907E1
:100880001AD5FFF707FE411B20681A29F6D38169A4
:100890008907F3D500202021206384F83D1084F8D7
:1008A0003E00216C41F02001216484F83C000220CC
:1008B00003B0BDE8F08300BF94F83C10012903D1D8
:1008C000022003B0BDE8F083012284F83C200368D5
:1008D000DDE90B180A9ADB0703D1036843F0010333
:1008E0000360036823F400630360212084F83D0063
:1008F000402084F83E000020206462626185608DA3
:10090000394620850020CFF6FF70E062204632464F
:100910004B46CDE9008500F0D7FD18B1012003B0AA
:10092000BDE8F083208D98B9204641462A4600F064
:100930002FFE88B3206C0428F0D12068016841F4B0
:1009400000710160012003B0BDE8F0830004EBD02A
:10095000204641462A4601F013F80028EAD1616A90
:100960002268084610F8013B1361238D6062581E0F
:100970002085678D013F678557697F07E6D50704A6
:10098000E4D048781061881C6062981E2085618DD3
:1009900001396185DAE700BF2068016841F4007120
:1009A0000160202084F83D00002084F83E0084F897
:1009B0003C0003B0BDE8F083016845F20040C4F29A
:1009C0000000814218BF7047B0B586B0002443F6DE
:1009D00030050194C4F20205296800F5D83041F0D1
:1009E00002012960296801F0020101910199C021E9
:1009F00001911221CDE902140321049104210591F2
:100A000001A9FFF777FC0094286940F400102861E1
:100A1000286900F400100090009806B0BDE8B040CE
:100A20007047000040F2040040F2AC01C2F2000046
:100A3000C2F2000100780A681044086070470000A4
:100A400080B543F60040C4F20200016841F4007131
:100A50000160016841F480610160016841F48071C6
:100A60000160032000F074F80F2000F005F800F09A
:100A700027F8002080BD000070B540F20406C2F2E5
:100A8000000640F20C013278C2F200014FF47A7392
:100A90000968B3FBF2F20446B1FBF2F1084600F03C
:100AA0004FFB0F2C4FF0010508D838B94FF0FF303D
:100AB00021460022002500F01FF87460284670BD12
:100AC00082B0002043F640010190C4F202014A685E
:100AD00042F480424A604A6802F480420192019ADC
:100AE0000090086840F080500860086800F080506E
:100AF0000090009802B0704710B54EF60C5CCEF234
:100B0000000CDCF80030C3F3022E8EF00704042C36
:100B100028BF0424BEF103034FF0FF3E0EFA04F495
:100B200038BF0023A14399400EFA03F39A431143BF
:100B300000F00F0200F160430901043A03F5644339
:100B40006244002848BF02F10C03197010BD000078
:100B50004EF60C51CEF200010A684FF6FF031A4020
:100B600060F30A2242F0806040F0FD700860704738
:100B7000002804BF012070472DE9F04143F6080822
:100B8000C4F202080446D8F8F8030D4600F0070046
:100B9000884207D288F8F853D8F8F80300F0070025
:100BA000A84277D12068810717D5410705D5D8F825
:100BB000001041F4E051C8F80010010705D5D8F83D
:100BC000001041F46041C8F80010D8F80010A26885
:100BD00021F0F0011143C8F80010C00740D1D8F847
:100BE000F80300F00700A84207D988F8F853D8F8AE
:100BF000F80300F00700A8424CD12068410707D550
:100C0000D8F80010E26821F4E0511143C8F8001050
:100C1000000708D5D8F80000216920F4604040EAB8
:100C2000C100C8F8000000F07DF8D8F8001042F2CA
:100C30002632C1F30311C0F60002515C40F20C02EF
:100C400020FA01F140F20800C2F200000068C2F28E
:100C500000021160FFF710FF0020BDE8F08100BF27
:100C60006068811E022907D258F8081C89015CBF00
:100C70000120BDE8F08111E0012807D158F8081CD7
:100C800089035CBF0120BDE8F08107E058F8081C2B
:100C9000890703D40120BDE8F08100BFD8F8001017
:100CA00021F003010843C8F80000FFF7F3FB0646F4
:100CB00041F28837D8F80000616800F00C00B0EB12
:100CC000810F8CD0FFF7E6FB801BB842F2D90320DE
:100CD000BDE8F08140F20C0043F60801C2F20000CA
:100CE000C4F202010068096842F23632C1F382217F
:100CF000C0F60002515CC8407047000040F20C0092
:100D000043F60801C2F20000C4F20201006809685B
:100D100042F23632C1F34231C0F60002515CC840A3
:100D20007047000010B543F60404C4F20204606882
:100D300000F00C0142F200400829C0F2F40007D094
:100D4000042918BF10BD41F20020C0F27A0010BD86
:100D5000216801F03F02216823684902C3F388112A
:100D600006D4A1FB00010023FFF72AFA07E000BF29
:100D700041F20020C0F27A004843B0FBF2F0216853
:100D80000222C1F3014102EB4101B0FBF1F010BDC1
:100D9000002804BF012070472DE9F04182B00446CD
:100DA000007843F60006C007C4F202060CD0B06813
:100DB00000F00C00042840F081803068800303D5E7
:100DC0006068002800F06A81207880071BD5B06831
:100DD00010F00C0F09D0B06800F00C00082840F0AB
:100DE00087807068400200F183803068800703D5F7
:100DF000E068012840F052813068216920F0F80055
:100E000040EAC10030602078000713D42078400702
:100E10002AD4A569002D00F03C81B06800F00C00D8
:100E2000082840F0A180012D40F01081012002B07F
:100E3000BDE8F0816069002840F20000C4F247205C
:100E400000F07E800121C0F8801EFFF723FB0546DD
:100E5000706F8007DAD4FFF71DFB401B0228F7D91B
:100E6000032002B0BDE8F081306C5FEAC0080AD40C
:100E700000200190306C40F080503064306C00F005
:100E800080500190019847F20007C4F200073868CB
:100E9000C00547D4386840F480703860FFF7FAFA2C
:100EA000054600BF3868C0053CD4FFF7F3FA401B85
:100EB0000228F7D9032002B0BDE8F081B06800F045
:100EC0000C00082803D1706840023FF576AF6068D7
:100ED000B0F5803F07D0B0F5A02F40F09B80306880
:100EE00040F480203060306840F4803030609BE017
:100EF000E06800285CD00020C4F247200121016096
:100F0000FFF7C8FA054600BF306880073FF574AFA9
:100F1000FFF7C0FA401B0228F6D9032002B0BDE853
:100F2000F08100BFA068012805D0052854D1306F9A
:100F300040F004003067306F40F00100306755E04A
:100F40000021C0F8801EFFF7A5FA0546706F8007E4
:100F50007FF55CAFFFF79EFA401B0228F6D903200D
:100F600002B0BDE8F08100BF0027C4F2472700208F
:100F70003866FFF78FFA022D05460DD130688001E3
:100F800040F19080FFF786FA401B02284FF00300E3
:100F9000F4D902B0BDE8F0813068800179D5FFF75F
:100FA00079FA401B02284FF00300F5D9F1E700BFA2
:100FB0000020C4F2472000210160FFF76BFA0546CC
:100FC000306880077FF51FAFFFF764FA401B0228E7
:100FD0004FF00300F4D9DCE7316F002821F0010164
:100FE0003167316F21F0040131677DD0FFF752FA8C
:100FF000054641F2883700BF306F800700F18680D8
:10100000FFF748FA401BB842F6D9032002B0BDE80A
:10101000F08100BF3168002821F4803131603168EF
:1010200021F4802131607BD0FFF734FA054600BF00
:10103000306880033FF5C8AEFFF72CFA401B6428E8
:10104000F6D9032002B0BDE8F08100BF7068E16905
:1010500000F480028A4221D1216A00F03F028A42D4
:101060001CD147F6C071626A0140B1EB821F15D1F5
:10107000A16A4FF6FF73C903994300F44032A1F50A
:1010800080318A420AD1E16A00F07060B0EB016FF2
:1010900004D1002002B0BDE8F08100BF012002B001
:1010A000BDE8F08104F11C052FCD084340EA821011
:1010B000D9034FF6FF729143A1F5803140EA0560F4
:1010C0000843706001203866FFF7E4F9044600BF6A
:1010D00030688001DDD4FFF7DDF9001B02284FF0F6
:1010E0000300F5D955E700BFFFF7D4F9054641F2F3
:1010F000883700BF306F800708D5FFF7CBF9401B5A
:10110000B8424FF00300F5D943E700BFB8F1000F34
:101110003FF57FAE306C20F08050306479E600BF40
:10112000FFF7B8F9054600BF306880037FF54CAE85
:10113000FFF7B0F9401B64284FF00300F4D928E70B
:10114000411E0020B0EB116F1CBF012070474EF212
:101150001002CEF2000251604EF62351CEF2000191
:10116000F0230B700721906011607047002804BFC6
:101170000120704710B5044690F8410028B90020BE
:1011800084F84000204600F021F8242084F8410033
:101190002068C16821F40051C160204600F026FE9D
:1011A0002068016921F490410161416921F02A011F
:1011B0004161C16841F40051C16000202021606498
:1011C00084F8411084F84210606310BD016841F258
:1011D0000000C4F20100814218BF704780B586B09C
:1011E000002143F630020191C4F20202536900F576
:1011F000704043F010035361536903F010030193EF
:10120000019B0191136843F001031360126802F01F
:1012100001020192019A4FF4C06201920222CDE9CB
:101220000221032104910721059101A9FFF762F82A
:1012300006B0BDE8804070472DE9F041044690F8C3
:10124000410020281CBF0220BDE8F0810D46002986
:101250004FF0010000F0AA801646002A08BFBDE842
:10126000F081002060642120984684F84100FFF757
:1012700011F9A684E684A1680646B1F5805F02D123
:101280002069002862D02F460025E08C002861D01C
:1012900018F1010018D0B8F1000F37D1216808E02B
:1012A00017F8010B4860E08C0138E084E08C0028DE
:1012B00051D00868000673D5002FF1D135F8020B24
:1012C00000276FF35F20EDE7216802E00868000661
:1012D00009D40868000606D4086800065CBF0868E0
:1012E0005FEA0060F2D51FB117F8010B05E000BFFF
:1012F00035F8020B00276FF35F204860E08C01385F
:10130000E084E08C0028E4D125E000BF216800BF24
:101310000868000608D4FFF7BDF8801B404541D897
:101320002168C868F4E700BF17B117F8010B04E0A3
:1013300035F8020B00276FF35F204860E08C01381E
:10134000E084E08C0028E3D105E000BF0027E08CBA
:1013500000289DD12168086840061FD4B8F1000F0D
:101360001ED018F101000FD10868400616D4086895
:10137000400613D40868400610D4086840064FF0B1
:101380000000F1D50FE000BFFFF784F8801B404557
:1013900008D82068C16800684006F5D5002002E042
:1013A000FFF778F80320202184F84110BDE8F08190
:1013B000FEE700002DE9F04782B0044600689A4637
:1013C0000B9D0A9E0368914643F4806202600268A6
:1013D0000F4642F48071016020464FF00111002257
:1013E0003346009500F032F950B120680068C0051E
:1013F00044BF4FF400702064032002B0BDE8F087C2
:1014000040F202082068C0F2010807F0FE070761F9
:101410002046414632462B4600F0FEF920B101201D
:1014200002B0BDE8F08700BF0020019020682A4686
:10143000416901918069314601900198204600F090
:101440009FFAB0B92068BAF1010F09D04FEA19210B
:101450000161204631462A4600F092FA48B92068D8
:101460005FFA89F10161204631462A4600F088FA88
:1014700060B1206C0428D2D12068016841F4007169
:101480000160012002B0BDE8F08700BF20680022A3
:101490000168334641F48071016020464FF001112C
:1014A000009500F0D3F800289FD147F0010C276881
:1014B0002046414632462B46C7F810C002B0BDE870
:1014C000F04700F0A9B900002DE9F04383B00446CD
:1014D00000680D4601680A9F0B9E41F48071994691
:1014E0009046016020464FF0011100223B460096D5
:1014F00000F0ACF850B120680068C00544BF4FF45C
:1015000000702064032003B0BDE8F083206805F07C
:10151000FE0101610221C0F2010120463A46334634
:1015200000F07AF920B1012003B0BDE8F08300BFDC
:101530000020029020683246416902918069394654
:1015400002900298204600F01BFA58B1206C042843
:10155000E9D12068016841F400710160012003B005
:10156000BDE8F0832068B9F1010F0AD04FEA1821D5
:10157000016120463946324600F002FA0028E5D1E2
:1015800020685FFA88F10161002003B0BDE8F083B4
:1015900070B50368044653F8140F400711D40E4683
:1015A000481C29D086BB00BF1868400527D4FEF729
:1015B00071FF236853F8140F400737D518684007A8
:1015C000F2D5002070BD00BF18684007F9D4186834
:1015D000400514D418684007F3D4186840050ED4A9
:1015E00018684007EDD41868400508D4186840070B
:1015F0004FF0000048BF70BD18684005E4D56FF497
:1016000080601860042012E0154603E053F8140FC0
:101610004007D6D418684005F1D4FEF73BFF401BC5
:101620002368B042F2D958694007EFD42020002146
:101630002022216384F83D2084F83E10226C104360
:101640002064012084F83C1070BD00002DE9F041B9
:10165000054600681E46144601F47F0201338FB22E
:1016600042D0DDF81880B2F5803F40F087804069B5
:101670003840C01BB0FA80F04009A04240F0C8805A
:101680004EB924E040693840C01BB0FA80F04009F0
:10169000A04240F0BD80FEF7FDFEA0EB08012868E7
:1016A000B142EFD941693940C91BB1FA81F1490909
:1016B000A142E7D19BE000BF40693840C01BB0FAAF
:1016C00080F04009A0424FF0000040F0A280FEF7F9
:1016D000E1FE286841693940C91BB1FA81F1490925
:1016E000A142E9D183E000BFB2F5803F24D100BF21
:1016F00041693940C91BB1FA81F14909A14240F061
:10170000878041693940C91BB1FA81F14909A14279
:1017100040F07E8041693940C91BB1FA81F1490925
:10172000A14275D141693940C91BB1FA81F149091A
:10173000A142DDD06CE000BF81693940C91BB1FA1C
:1017400081F14909A14263D181693940C91BB1FACC
:1017500081F14909A1425BD181693940C91BB1FAC4
:1017600081F14909A14253D181693940C91BB1FABC
:1017700081F14909A142DFD04AE000BF80693840C9
:10178000C01BB0FA80F04009A04241D146B923E025
:1017900080693840C01BB0FA80F04009A04237D1C0
:1017A000FEF778FEA0EB08012868B142F0D9816904
:1017B0003940C91BB1FA81F14909A142E8D116E0CB
:1017C00080693840C01BB0FA80F04009A0424FF059
:1017D000000018BFBDE8F081FEF75CFE2868816953
:1017E0003940C91BB1FA81F14909A142E8D1002071
:1017F0002021286385F83D1085F83E00296C41F0D2
:101800002001296485F83C000120BDE8F08100BF7B
:101810000020BDE8F0810000F0B581B0044600680A
:101820001D4643698FB203EA0701B94202D1002085
:1018300001B0F0BD4169164601323FD049053FD4A1
:10184000CEB100BFFEF726FE411B2068B14203D98E
:1018500041693940B94215D141693940B942E6D0B0
:1018600041694905EED52BE041693940B942DED0E6
:101870004169490524D4FEF70DFE206841693940CD
:10188000B942F1D0202023E041693940B942CED09D
:101890004169490514D441693940B942C7D0416909
:1018A00049050DD441693940B942C0D04169490563
:1018B00006D441693940B942B9D041694905E3D5F7
:1018C000016841F4007101606FF48061416104209E
:1018D00000212022216384F83D2084F83E10226CF0
:1018E0001043206484F83C10012001B0F0BD0000DA
:1018F00070B504460068154650F8143F5A063DD4AA
:101900000E4629B926E000BF50F8141F490635D409
:101910000168C90621D4FEF7BDFD411B2068B14214
:10192000F2D941694906EFD400202021206384F8D0
:101930003D1084F83E00206C40F0200018E000BF0D
:10194000FEF7A8FD206850F8141F4906ECD5016881
:10195000490613D40168C906F2D56FF01001016081
:1019600000202021206384F83D1084F83E00206C84
:101970002064002084F83C00012070BD002070BD70
:1019800070B50368044653F8140F000611D40E46D0
:10199000481C29D086BB00BF1868400527D4FEF735
:1019A00079FD236853F8140F000637D51868000630
:1019B000F2D5002070BD00BF18680006F9D4186881
:1019C000400514D418680006F3D4186840050ED4F6
:1019D00018680006EDD41868400508D41868000699
:1019E0004FF0000048BF70BD18684005E4D56FF4A3
:1019F00080601860042012E0154603E053F8140FCD
:101A00000006D6D418684005F1D4FEF743FD401B0C
:101A10002368B042F2D958690006EFD42020002193
:101A20002022216384F83D2084F83E10226C10436C
:101A30002064012084F83C1070BD000083B00020B9
:101A400043F630010290C4F202010A6842F08002BB
:101A50000A600A6802F080020292029A01900A6803
:101A600042F001020A600A6802F001020192019A42
:101A70000090086840F002000860086800F002006A
:101A80000090009803B0704780B540F2100045F216
:101A90000041C2F20000C4F2000148F2A06200233B
:101AA0004FF4804CC0F2010280E80E00C0E9033C14
:101AB000C0E90533C0E90733FEF7F2FC002808BF90
:101AC00080BDBDE88040FEF7FDBB000080B584B05E
:101AD000400094460A4601304FF0FF319BB2CDE9F9
:101AE0000131C1B240F21000C2F200000123CDF872
:101AF00000C0FEF787FD04B080BD000080B584B053
:101B000094460A4640004FF0FF319BB2CDE90131C7
:101B1000C1B240F21000C2F200000123CDF800C0B3
:101B2000FEF79CFE04B080BD80B540F2640041F237
:101B30000001C2F20000C4F2010100234FF00C0CBE
:101B40004FF4E13280E80E00C0E90333C0E905C379
:101B5000C361FFF70BFB002808BF80BDBDE88040D4
:101B6000FEF7B0BBFEE70000FEE7000010B582B054
:101B700004460020CDF8030000906A46512002215F
:101B80000723FFF7A3FF9DF800009DF80110C0F3A5
:101B9000021303EB830300F00F0000EB4300E0713E
:101BA000C1F302109DF8022000EB800001F00F014C
:101BB00001EB4000A071C2F301109DF803C040EAA0
:101BC000800002F00F0101EB40006071CCF30110C6
:101BD00040EA80000CF00F0101EB40009DF804107A
:101BE000E07001F007009DF80510207148B201F087
:101BF0000F02C90648BF0A329DF80610A2700A09F2
:101C000001F00F0140F6340302EB8202B0F1FF3F16
:101C1000C8BF4FF4FA63C81800EB4200208002B03E
:101C200010BD00002DE9F04383B04CF6CD4CCCF64E
:101C3000CC4CA1FB0C3EA0FB0C3C0E0ECD2706FBB2
:101C400007F3DB0A03EB83034FF0F009A6EB430332
:101C500009EADE560D0C33438DF80530EBB27B43B9
:101C6000DB0A03EB8306A5EB46060C0A46EA0313E0
:101C70008DF80630E3B27B43DB0A03EB8306A4EB6B
:101C80004606020E46EA03138DF8073002FB07F3FF
:101C9000DB0A03EB8303A2EB430209EADC531A439A
:101CA0008DF809104FF6FC714FEA10488DF80820A6
:101CB000014040F6330291425FFA88F107FB01F1DF
:101CC0004FEAD12101EB81024FF00003A8EB420261
:101CD00088BF012342EAC31242EA01118DF80A10BB
:101CE00081B28A0841F27B435A43520C642302FBBF
:101CF000130267235A434CF6CD435943C90C01EBF9
:101D0000810109EA9212A0EB410010438DF80B000B
:101D10000DF10502512002210723FFF7EFFE03B06A
:101D2000BDE8F0837047000070470000FEF77ABE00
:101D3000B0B592B0002443F64000CDE90A44CDE9A5
:101D400008440594CDE90344CDE901440094C4F26C
:101D500002000168022541F080510160006800F036
:101D600080500090009847F200000094C4F20000F8
:101D7000016841F4804101600068A82100F48040BE
:101D800000900098012006904FF4803007904FF4A7
:101D900080000D9004200E90119006A80C95CDE9BE
:101DA0000F15FEF7F5FF18B172B600BFFEE700BFD2
:101DB0000F20CDE901054FF4A05004904FF480505E
:101DC000059001A805210394FEF7D2FE10B172B66A
:101DD000FEE700BF12B0B0BD4EF68850CEF2000054
:101DE000016841F4700101607047000010B50446BD
:101DF0000068D4E902C22369016921F4405111430A
:101E00000161626943EA0C01E3691143C268194345
:101E100049F20C639A431143C1604169A26921F4FC
:101E2000407141F20043114340F48062C4F2010367
:101E30009A42416102D1FEF761FF01E0FEF74AFFDD
:101E4000E16963681922B1F5004FA0FB020123D1BB
:101E50005A00DB0FFEF7B4F948F21F51C5F2EB113F
:101E6000A0FB01235A094FF69C73C0F6FF7303F1E0
:101E7000805302FB0300322303EBC000A0FB0101EF
:101E80004FF4F87000EA111000EB0210C1F3421198
:101E900008442168886010BD9A009B0FFEF790F9F6
:101EA00048F21F51C5F2EB11A0FB01235A094FF66E
:101EB0009C73C0F6FF7302FB0300322303EB001098
:101EC000A0FB0101F02000EA511000EB0210C1F369
:101ED000431108442168886010BD0000FEE700003F
:101EE00080B582B0019040F26400C2F2000001A906
:101EF00001224FF0FF33FFF79FF9019802B080BD38
:101F000082B0FEF79DFDFFF713FFFFF797FDFFF788
:101F1000BBFDFFF709FE40F2E97041F20271C1F624
:101F20000940C3F23B7100900191FFF77BFE6C46C4
:101F300011A515A618A700BF2046FFF717FEBDF88C
:101F400000109DF802209DF80330284600F02AF882
:101F50009DF805109DF806209DF80730304600F0EA
:101F600021F89DF80410384600F01CF84FF47A7000
:101F7000FEF7ACF9E0E700BF253032642D253032A2
:101F8000642D253032642000253032643A25303209
:101F9000643A2530326420007765656B2D3E20253C
:101FA000640A00000FB4054B10B503A9044A029857
:101FB00000F018F810BC5DF814FB0000E11E0008EA
:101FC0000000002002E008C8121F08C1002AFAD150
:101FD00070477047002001E001C1121F002AFBD1A9
:101FE000704700002DE9FF4F8BB08846054600265C
:101FF00006E025280BD0DDE90D1290476D1C761CFC
:1020000028780028F5D10FB03046BDE8F08F0024C5
:10201000A146A2460122AE4900E0044315F8013F63
:10202000203B02FA03F00842F7D128782A2810D082
:102030006FF02F022878A0F13001092915D809EB9B
:10204000890102EB410144F0020400EB01096D1C1F
:10205000F0E758F8041B5FEA010903D544F4005483
:10206000C9F1000944F002046D1C28782E2817D10C
:1020700015F8010F44F004042A280ED06FF02F0247
:102080002878A0F1300109290AD80AEB8A0102EB6D
:10209000410100EB010A6D1CF2E758F804AB6D1C1E
:1020A00028786C280FD006DC4C2817D068280DD073
:1020B0006A2814D104E0742810D07A280FD10DE0DA
:1020C00044F400140AE044F4801401E044F44014A1
:1020D0006978814202D104F580146D1C6D1C28784A
:1020E000692865D006DC00288DD0632827D06428B5
:1020F00006D15DE06E2808D073282AD0752877D0E5
:10210000DDE90D129047761CE0E0C4F3025002288E
:1021100009D003280DD0D8F8001004280DD00E6087
:1021200008F10408D2E0D8F80010F217C1E9006203
:10213000F6E7D8F800100E80F2E70E70F0E718F816
:10214000041B8DF8001000208DF80100EB460120E3
:1021500003E058F804BB4FF0FF3061074FF0000771
:1021600001D40AE07F1C57450DDA8742FADB1BF8E1
:1021700007100029F6D106E07F1C8742FCDB1BF824
:1021800007100029F8D1DDE90D23A9EB07008146EE
:10219000214600F0B1F83044C61904E0DDE90D1223
:1021A0001BF8010B90477F1EF8D22146484688E075
:1021B00058F8040BC4F302514FF00A0B032900D165
:1021C00000B2042900D140B2002802DA40422D2199
:1021D00002E0210505D52B218DF82410012104E012
:1021E00006E0E10710D02021F6E708AF089113E0E0
:1021F00058F8040BC4F302514FF00A0B032900D125
:1022000080B2042900D1C0B20021EEE75946FEF7A2
:1022100008F8303107F8011D0028F7D1ADEB0700B1
:1022200000F1200B600702D524F4803401E04FF068
:10223000010ADA4502DDAAEB0B0000E0002082462D
:1022400000EB0B0108980144A9EB01000A90E003A0
:1022500006D4DDE90D2321460A9800F04DF8064426
:102260004FF0000908E009A911F80900DDE90D1295
:10227000904709F10109761C08998945F3DBE003D1
:102280000CD5DDE90D2321460A9800F035F8064407
:1022900004E0DDE90D1230209047761CBAF1000110
:1022A000AAF1010AF5DC05E0DDE90D1217F8010BD2
:1022B0009047761CBBF10001ABF1010BF4DC0A98EE
:1022C0002146DDE90D2300F005F806446D1C97E674
:1022D000092801002DE9F041044600251E46174655
:1022E000880404D405E039462020B0476D1C641EE4
:1022F000F9D52846BDE8F0812DE9F04104460025D6
:102300001E469046C80301D5302700E020278804E8
:1023100004D505E041463846B0476D1C641EF9D52A
:102320002846BDE8F0810000000000000000010226
:10233000030406070809000000000102030400006E
:10234000602300080000002010000000C41F0008E7
:102350007023000810000020A0040000D41F000813
:102360000000000001000000100000000024F40044
:040000050800018965
:00000001FF
